{
  "_format": "hh-sol-artifact-1",
  "contractName": "WithdrawVerifier",
  "sourceName": "contracts/WithdrawVerifier.sol",
  "abi": [
    {
      "inputs": [],
      "name": "ProofLengthWrong",
      "type": "error"
    },
    {
      "inputs": [],
      "name": "PublicInputsLengthWrong",
      "type": "error"
    },
    {
      "inputs": [],
      "name": "ShpleminiFailed",
      "type": "error"
    },
    {
      "inputs": [],
      "name": "SumcheckFailed",
      "type": "error"
    },
    {
      "inputs": [
        {
          "internalType": "bytes",
          "name": "proof",
          "type": "bytes"
        },
        {
          "internalType": "bytes32[]",
          "name": "publicInputs",
          "type": "bytes32[]"
        }
      ],
      "name": "verify",
      "outputs": [
        {
          "internalType": "bool",
          "name": "",
          "type": "bool"
        }
      ],
      "stateMutability": "view",
      "type": "function"
    }
  ],
  "bytecode": "0x60e0604052348015600f57600080fd5b50618000608052600f60a052600060c05260805160a05160c0516151f861005d600039600061058601526000818161063401528181610c230152610cc10152600061052d01526151f86000f3fe608060405234801561001057600080fd5b506004361061002b5760003560e01c8063ea50d0e414610030575b600080fd5b61004361003e366004614da4565b610057565b604051901515815260200160405180910390f35b60006100666101b86020614e89565b8414610085576040516376ba560560e11b815260040160405180910390fd5b600061008f6101a3565b9050600061009d87876101b8565b604083015190915084146100c45760405163fa06659360e01b815260040160405180910390fd5b60006100dd828787866000015187604001516001610466565b905061012c868680806020026020016040519081016040528093929190818152602001838360200280828437600092019190915250508451606081015160809091015190925090506001610516565b815160a00152600061013e838361062b565b90508061015e576040516313f8744360e31b815260040160405180910390fd5b600061016b848685610732565b90508061018b576040516352ec174560e11b815260040160405180910390fd5b8180156101955750805b9a9950505050505050505050565b6101ab614895565b6101b3610fbd565b905090565b6101c0614a15565b6101d66101d1608060008587614ea0565b6118a0565b81526101ea6101d161010060808587614ea0565b60208201526102026101d16101806101008587614ea0565b604082015261021a6101d16102006101808587614ea0565b60a08201526102326101d16102806102008587614ea0565b60c082015261024a6101d16103006102808587614ea0565b60608201526102626101d16103806103008587614ea0565b60e082015261027a6101d16104006103808587614ea0565b608082015261040060005b601c8110156103135760005b600881101561030a576102bd8684876102ab826020614eca565b926102b893929190614ea0565b611976565b84610100015183601c81106102d4576102d4614edd565b602002015182600881106102ea576102ea614edd565b6020020181815250506020836103009190614eca565b9250600101610291565b50600101610285565b5060005b6028811015610368576103318583866102ab826020614eca565b836101200151826028811061034857610348614edd565b60200201818152505060208261035e9190614eca565b9150600101610317565b5060005b6103786001601c614ef3565b8110156103ce5761039d858386610390826080614eca565b926101d193929190614ea0565b83610140015182601b81106103b4576103b4614edd565b60200201526103c4608083614eca565b915060010161036c565b5060005b601c811015610423576103ec8583866102ab826020614eca565b83610160015182601c811061040357610403614edd565b6020020181815250506020826104199190614eca565b91506001016103d2565b50610435848285610390826080614eca565b610180830152610446816080614eca565b9050610459848285610390826080614eca565b6101a08301525092915050565b61046e614ad2565b600061047f888888888888876119d3565b908352905061048e8189611a2a565b602084019190915290506104a181611bc7565b604084019190915290506104b58882611c2a565b606084019190915290506104c98882611d01565b608084019190915290506104dd8882611d8f565b60a084019190915290506104f18882611eff565b60c084019190915290506105058882611f73565b5060e0830152509695505050505050565b6000600180826105608661055b896105566105518a7f0000000000000000000000000000000000000000000000000000000000000000614eca565b611fcb565b611feb565b612006565b9050600061057f8761057a8a6105566105518b6001614eca565b612021565b905060005b7f00000000000000000000000000000000000000000000000000000000000000008110156106135760006105d08b83815181106105c3576105c3614edd565b6020026020010151611fcb565b90506105e0866105568684612006565b95506105f0856105568584612006565b94506105fc848b612006565b9350610608838b612021565b925050600101610584565b5061061e8484612053565b9998505050505050505050565b6000806001815b7f000000000000000000000000000000000000000000000000000000000000000081101561070657600086610100015182601c811061067357610673614edd565b6020020151905060006106868286612062565b9050806106a6576040516313f8744360e31b815260040160405180910390fd5b6000876060015184601c81106106be576106be614edd565b602002015190506106cf8382612080565b95506106f6886040015185601c81106106ea576106ea614edd565b60200201518683612234565b9450505050806001019050610632565b5060006107228661012001518660000151876020015185612260565b90508281145b9695505050505050565b60006107836040518061012001604052806000815260200160008152602001600081526020016000815260200160008152602001600081526020016000815260200160008152602001600081525090565b60006107928460a001516122cf565b905061079c614b2f565b6107a4614b4e565b60e08601516107c4906107bf908560005b6020020151612021565b612334565b60a085015260e08601516107e4906107bf908560005b6020020151612006565b60c080860182905260a0860151908801516108039261055b9190611feb565b845260a08601516108319061081790612334565b6105568660a0015161057a8a60c001518960c00151611feb565b602085015260018252610180880151610849906123a4565b8152600160608501819052600060808601525b602381116109035761087e61087486600001516123e4565b8660600151611feb565b83826046811061089057610890614edd565b602002015260808501516101208a01516108d3919061055b906108b4600186614ef3565b602881106108c4576108c4614edd565b60200201518860600151611feb565b8560800181815250506108ee85606001518860800151611feb565b60608601526108fc81614f06565b905061085c565b50600061091260236001614eca565b90505b602881116109935761092d61087486602001516123e4565b83826046811061093f5761093f614edd565b602002015260808501516101208a0151610963919061055b906108b4600186614ef3565b85608001818152505061097e85606001518860800151611feb565b606086015261098c81614f06565b9050610915565b50606087015181600160200201526080870151816002602002015260a0870151816003602002015260c0870151816004602002015260e0870151816005602002015261010087015181600660200201526101208701518160076020020152610140870151816008602002015261016087015181600960200201526101a087015181600a602002015261018087015181600b60200201526101c087015181600c60200201526101e087015181600d602002015261020087015181600e602002015261022087015181600f60200201526102408701518160106020020152610260870151816011602002015261028087015181601260200201526102a087015181601360200201526102c087015181601460200201526102e08701518160156020020152610300870151816016602002015261032087015181601760200201526103408701518160186020020152610360870151816019602002015261038087015181601a60200201526103a087015181601b60200201528751610b14906123a4565b6103808201526020880151610b28906123a4565b6103a08201526040880151610b3c906123a4565b6103c08201526060880151610b50906123a4565b6103e08201526080880151610b64906123a4565b61040082015260e0880151610b78906123a4565b61042082015260a0880151610b8c906123a4565b61044082015260c0880151610ba0906123a4565b6104608201528751610bb1906123a4565b6104808201526020880151610bc5906123a4565b6104a08201526040880151610bd9906123a4565b6104c08201526060880151610bed906123a4565b6104e08201526080880151610c01906123a4565b610500820152606086015160808501516101608a0151600092610c47929091877f00000000000000000000000000000000000000000000000000000000000000006123fe565b805160a0870151919250610c5a91611feb565b604086018190526101608a01515160c0890151610c8a929161055b91610c809190611feb565b8860c00151611feb565b604086015260c0870151610c9d9061251c565b606086015260005b610cb16001601c614ef3565b811015610eb5576000610ce560017f0000000000000000000000000000000000000000000000000000000000000000614ef3565b821015905080610e5b57610d186107bf8a60e0015188856001610d089190614eca565b601c81106107b5576107b5614edd565b60a088015260e0890151610d46906107bf9088610d36866001614eca565b601c81106107da576107da614edd565b60c0880152606087015160a0880151610d5f9190611feb565b60e0880152606087015160c08a0151610d7b91610c8091611feb565b6101008801819052610d9d90610d90906123e4565b61055b8960e001516123e4565b8583610dab60286001614eca565b610db59190614eca565b60468110610dc557610dc5614edd565b60200201526101008701516101608c0151600091610e0291610de8866001614eca565b601c8110610df857610df8614edd565b6020020151611feb565b9050610e1e8161055b8a60e0015187876001610de89190614eca565b9050610e2e886040015182612006565b6040890152606088015160c08b0151610e5491610e4a91611feb565b8b60c00151611feb565b6060890152505b610e7f8b610140015183601b8110610e7557610e75614edd565b60200201516123a4565b8483610e8d60286001614eca565b610e979190614eca565b60468110610ea757610ea7614edd565b602002015250600101610ca5565b5060408051808201909152600181526002602082015282610ed8601c6028614eca565b60468110610ee857610ee8614edd565b6020020152604085015183610eff601c6028614eca565b60468110610f0f57610f0f614edd565b60200201526101a0890151600090610f26906123a4565b90508083610f36601c6028614eca565b610f41906001614eca565b60468110610f5157610f51614edd565b602002015260e088015184610f68601c6028614eca565b610f73906001614eca565b60468110610f8357610f83614edd565b60200201526000610f948486612528565b90506000610fa1836125ef565b9050610fad8282612637565b9c9b505050505050505050505050565b610fc5614895565b50604080516103c0810182526180008152600f602080830191909152600082840152825180840184527f02719635ef533fd21a2d9a0b025b45c193ac7df2fbfcc39e6c9ca559be0c885381527f10a138f719a1d0f563ce51877db1444b0c61cee8e724e80ae15cfa46671d4c8d818301526060830152825180840184527f247004020b93418b5194f948f0811fff6b07f9393fa5cec842915d5cacf9781781527f146b0a4c87e73aad6db3f54363e2b0be099ba284f0d6cfbe48637eda6453888e818301526080830152825180840184527f0e97a7545f7159f9fa5fefa113460894516986f176e637b6a88732bb44e3731b81527f1a0d13c652ef03111328f306d225f94252acefca7a21ea1a686a8af05cd0fd0b8183015260a0830152825180840184527f21ad3376e87d7923ffc602e4adb5b54396c6860daf9917bf9c4ff0acd2df854981527f263fa8c657d60f0b5c817892e447c2147acc79a84338e6ef66eee1b2c0ff71fc8183015260c0830152825180840184527f2a971f555192eb5c49dc5d74207b9432a29fdc37b64b585e36c99de98f8048f081527f227afdaa1eb290446ec7b57d4614c2c7a5595600c8375dbd5f9291f745f035878183015260e0830152825180840184527f0ddc5f55b832faa8e2c79d1b6a22138dffb22511cf7d3adb87df50e27830132881527f14370d7988e59f5a25f16f399d81657d57a00e537baa69c056b9a76cc15cc8ca81830152610100830152825180840184527f073b02cecb8f821811cdd99041b933c6d69e208989fb01666d8c84f2ff35e78981527f28be7d0b3c0901c07ce3ea8b2c5097648ff1943e6a4c72b78335f34c4f947b0481830152610120830152825180840184527f114589fdd0afd6290f7b0f4c204fb7f347e3943c157410e093a8b190bf20950781527f03bec3afee4e98269f02a34e555c740d36adf90820c3a7368c36ab9ddf1fec6f81830152610140830152825180840184527e10ba981fbf33c69fed5f4760c2fc97567340594e8c0bb88352ebf21da412d581527f0b1b254de3a3e8ab08fcc2f87d228adc068efa6e214cd317c3d381dcea16578281830152610160830152825180840184527e16742ab9466671fede296e298e2c36be5217890e51594c651b0f9abd4f96cb81527f2eee72a68542b443f5a07fe388992a09044d19a69d721d027d2e27fad5dae60a81830152610180830152825180840184527f023fc903b2268237201d621af78b91e8a745148eb8e5377eb94f96f585722e9381527f2ed62b6aedf9df4b488da81cd84df35f05ab027a7b666a70afcf0d8e8800b32c818301526101a0830152825180840184527f1506b5ff1e84bb5c432fbdef825add6f0065b836a8cc245e0643631d0820058281527f237f9b2e1fb6cd2d8750bfd55cd2e762e220108964bb4e891827cb646b68d126818301526101c0830152825180840184527f17a95ab1893de6c9647c6911c80e9d6de6853d1e194fc47697d38080de25ca7f81527f013ed31b6bd98f40b526a0203b91eeca8e7abae7c08a17a2b31a4c07aad0241a818301526101e0830152825180840184527f25741a52b6b6f0f4aaf1f85d7287ef9f518a1fba93ff9583af26484f77a0a38981527f2db9da9d30b9409d21740ca83a04ae2cd3a02324e44b1075f572ad886329e15581830152610200830152825180840184527f1b9b842a03d7022f9fac8b928a1e5f6127b0f9139a8512b9b154c20dcca52c2181527f2dcfa21069c8e25bd5deb73ed8b28e5c7abb75a3b07354c306bfe45ced79ae3981830152610220830152825180840184527f236d6bc0c5bfe11a9382191611add72ac175e6d4540eb392c4b4b30001fbd48781527f1a43ac552a52ad553e65c3eaa35652dc870f0d64c31b1f8d70ac83989ac6142981830152610240830152825180840184527f0bff3fca8bc6ddba882c89d3408374d80e4c2302b4f4a712d2e1c5696995fca781527f0784863fe472bcf0ed171313ff6c13813530a1471d2025315d1ddfaf5f96d55381830152610260830152825180840184527f10d9cd49a4e40cb1bd3197e45d2ca33f379edf3b7b34ff7b5df8de8c2a7bd64181527f1799aa3166fa2c1cc34eaa7495ee3a93b4c57fe0642193692928480838e24a6f81830152610280830152825180840184527f01fe02828a6de64db075bce6cea72a32f3fcd35482e18a228b71cf8cdf9df62081527f20f4774c73272f7e525d0b53f68118ec53172ff1427267fc6b5fe38503acb729818301526102a0830152825180840184527f269839289d38d91c998dcd784531733a81679d06918dda64a40dd41b8c9d033f81527f075f942ab4e3005198ff7635e3126e86d4452a273876f2c64a6bbe848679f752818301526102c0830152825180840184527f1a049a71b9bf4fd70d7e8b496639397fbb16de1fe7f0696c735b67e8ea4cae7081527f16732292ad3037d2b8ed6959be04d8b7fe3ab46ff3fb8a1c44a94bd75101be3a818301526102e0830152825180840184527f11f22072e37c9521357487db1407080d8896883bbb8d2ed9e4f80f6033e133ec81527f095286a6131303afb53eb022e46dcded10fbae0802a934e804904825eaa3620c81830152610300830152825180840184527f02f3eb4a53d98e29ba5429b34fea4c1a554548025dfbba6ece0058a0faf9317e81527f0c3fd4ba46fabd19d701d2013630e8cc1fc815751944a9a86f40723d39fea38281830152610320830152825180840184527f1317cf06bcee90af6970d934a3636668486179d9721fd20cbb10cdb604036f2e81527f065fd9914b612a2aea1a830f25abe6d801b29b280f45a69796de5a15ff8a387a81830152610340830152825180840184527f0d4f8ffe2aba6dc146478490c574924c4db5fde59766612c4ea965c87a17255881527f269a57a4c27d4043eedbd9fbc8b44982783fb779530289e0298306a5172431c281830152610360830152825180840184526001815260028183015261038083015282518084019093527f2aae6565426d18f0144c9812300a7bd60eb94929a371df86685a9300bef9fc1983527f27ee5f738bed55ac0ae0a3b443c60b7db6677fe9ce3ea2cb94322c6b028052a0908301526103a081019190915290565b6118a8614b7c565b608082146118f35760405162461bcd60e51b81526020600482015260136024820152721a5b9d985b1a5908189e5d195cc81c1bda5b9d606a1b60448201526064015b60405180910390fd5b60408051608081019091528061190d602060008688614ea0565b61191691614f1f565b815260209081019061192c906040908688614ea0565b61193591614f1f565b8152602001611948606060408688614ea0565b61195191614f1f565b8152602001611964608060608688614ea0565b61196d91614f1f565b90529392505050565b6000602082146119bf5760405162461bcd60e51b815260206004820152601460248201527334b73b30b634b210313cba32b99039b1b0b630b960611b60448201526064016118ea565b6119cc6105518385614f1f565b9392505050565b6119db614ba4565b60006119eb898989898989612841565b604086019190915260208501919091529083529250611a0a838a612c6b565b608085019190915260608401919091529199919850909650505050505050565b611a32614bda565b6000611a3c614bf9565b84815260e0848101805151602080850191909152815181015160408086019190915282518101516060808701919091529251830151608080870191909152880180515160a0870152805183015160c08701528051820151948601949094529251909101516101008401529051611ad391611ab891849101614f3d565b60405160208183030381529060405280519060200120611fcb565b9150611ade82612d38565b6020850152835260015b611af460026019614f88565b811015611b7457611b1183604051602001611ab891815260200190565b9250611b1c83612d38565b85611b28846002614e89565b60198110611b3857611b38614edd565b6020020186611b48856002614e89565b611b53906001614eca565b60198110611b6357611b63614edd565b602002019190915252600101611ae8565b50611b8b82604051602001611ab891815260200190565b91506000611b9883612d38565b85611ba560016019614ef3565b60198110611bb557611bb5614edd565b60200201919091525050509250929050565b611bcf614c18565b6000805b601c811015611c2357611bf284604051602001611ab891815260200190565b93506000611bff85612d38565b8584601c8110611c1157611c11614edd565b60200201919091525050600101611bd3565b5090929050565b611c32614c18565b6000805b601c811015611cf857611c47614bf9565b84815260005b6008811015611cb15786610100015183601c8110611c6d57611c6d614edd565b60200201518160088110611c8357611c83614edd565b602002015182611c94836001614eca565b60098110611ca457611ca4614edd565b6020020152600101611c4d565b50611cc681604051602001611ab89190614f3d565b94506000611cd386612d38565b8685601c8110611ce557611ce5614edd565b6020020191909152505050600101611c36565b50909391925050565b600080611d0c614c37565b83815260005b6028811015611d60578561012001518160288110611d3257611d32614edd565b602002015182611d43836001614eca565b60298110611d5357611d53614edd565b6020020152600101611d12565b50611d7581604051602001611ab89190614f9c565b91506000611d8283612d38565b5096929550919350505050565b600080611d9a614c56565b83815260005b611dac6001601c614ef3565b811015611eea5785610140015181601b8110611dca57611dca614edd565b60200201515182611ddc836004614e89565b611de7906001614eca565b606d8110611df757611df7614edd565b602002015261014086015181601b8110611e1357611e13614edd565b60200201516020015182826004611e2a9190614e89565b611e35906002614eca565b606d8110611e4557611e45614edd565b602002015261014086015181601b8110611e6157611e61614edd565b60200201516040015182611e76836004614e89565b611e81906003614eca565b606d8110611e9157611e91614edd565b602002015261014086015181601b8110611ead57611ead614edd565b60200201516060015182611ec2836004614e89565b611ecd906004614eca565b606d8110611edd57611edd614edd565b6020020152600101611da0565b50611d7581604051602001611ab89190614fd1565b600080611f0a614c75565b83815260005b601c811015611f5e5785610160015181601c8110611f3057611f30614edd565b602002015182611f41836001614eca565b601d8110611f5157611f51614edd565b6020020152600101611f10565b50611d7581604051602001611ab89190615006565b600080611f7e614c94565b83815261018085018051516020808401919091528151810151604080850191909152825181015160608086019190915292519092015160808401529051611d7591611ab89184910161503b565b6000611fe56000805160206151a38339815191528361506f565b92915050565b60006000805160206151a38339815191528284099392505050565b60006000805160206151a38339815191528284089392505050565b60006000805160206151a383398151915261204a836000805160206151a3833981519152614ef3565b84089392505050565b60006119cc8361055684612334565b81516000908190612075908560016107da565b929092149392505050565b60408051610100810182527f30644e72e131a029b85045b68181585d2833e84879b9709143e1f593efffec5181526102d060208201527f30644e72e131a029b85045b68181585d2833e84879b9709143e1f593efffff1191810191909152609060608201527f30644e72e131a029b85045b68181585d2833e84879b9709143e1f593efffff71608082015260f060a08201527f30644e72e131a029b85045b68181585d2833e84879b9709143e1f593effffd3160c08201526113b060e08201526000906001825b60088110156121685761215e826105568784612021565b9150600101612147565b50612171614cb2565b60005b60088110156121d457600084826008811061219157612191614edd565b602002015190506121a6816105568985612021565b90506121b181612334565b9050808383600881106121c6576121c6614edd565b602002015250600101612174565b5060005b60088110156122295760008782600881106121f5576121f5614edd565b6020020151905061221281848460088110610df857610df8614edd565b905061221e8682612006565b9550506001016121d8565b506107288483611feb565b60008061224b600161055b85610556896001612021565b90506122578482611feb565b95945050505050565b600061226a614cd1565b612275868285612d69565b61228186868386612f1a565b61228d86868386613107565b61229886828561330e565b6122a3868285613500565b6122af86868386613865565b6122ba868285614120565b6122c58682856144fc565b61072881856147fe565b6122d7614c18565b81815260015b601c81101561232e5761230f826122f5600184614ef3565b601c811061230557612305614edd565b602002015161251c565b8282601c811061232157612321614edd565b60200201526001016122dd565b50919050565b6000808290506000604051602081526020808201526020604082015282606082015260026000805160206151a38339815191520360808201526000805160206151a383398151915260a08201526020600060c08360055afa90508061239857600080fd5b50506000519392505050565b6123ac614cf0565b604051806040016040528060888460200151901b846000015117815260200160888460600151901b8460400151178152509050919050565b6000611fe5826000805160206151a3833981519152614ef3565b612406614c18565b601c5b80156125125760008461241d600184614ef3565b601c811061242d5761242d614edd565b60200201519050600088612442600185614ef3565b601c811061245257612452614edd565b6020020151905060006124ae61247261246b858c611feb565b6002611feb565b61057a8a612481600189614ef3565b601c811061249157612491614edd565b60200201516105566124a88861055660018a612021565b87612021565b90506124cf816105566107bf6124c987610556600189612021565b86612006565b90508584116124fe5797508780856124e8600187614ef3565b601c81106124f8576124f8614edd565b60200201525b5050508061250b90615083565b9050612409565b5095945050505050565b6000611fe58283611feb565b612530614cf0565b600061253e601c6028614eca565b612549906002614eca565b90506001604051855151604082015285516020015160608201528451608082015260408160606040840160075afa8216915060015b838110156125d75760208102870160208202870181515160408501528151602001516060850152805160808501525050604080830160606040850160075afa8316925060408260808460065afa9092169160010161257e565b50805184526020810151602085015250505092915050565b6125f7614cf0565b60008051602061518383398151915282602001516000805160206151838339815191526126249190614ef3565b61262e919061506f565b60208301525090565b81516020808401518351848301516040805194850195909552938301919091527f198e9393920d483a7260bfb731fb5d25f1aa493335a9e71297e485b7aef312c260608301527f1800deef121f1e76426a00665e5c4479674322d4f75edadd46debd5cd992f6ed60808301527f090689d0585ff075ec9e99ad690c3395bc4b313370b38ef355acdadcd122975b60a08301527f12c85ea5db8c6deb4aab71808dcb408fe3d1e7690c43d37b4ce6cc0166fa7daa60c083015260e08201526101008101919091527f260e01b251f6f1c7e7ff4e580791dee8ea51d87a358e038b4efe30fac09383c16101208201527f0118c4d5b837bcc2bc89b5b398b5974e9f5944073b32078b7e231fec938883b06101408201527f04fc6369f7110fe3d25156c1bb9a72859cf2a04641f99ba4ee413c80da6a5fe46101608201527f22febda3c0c0632a56475b4214e5615e11e6dd3f96e6cea2854a87d4dacc5e5561018082015260009081906101a001604051602081830303815290604052905060008060086001600160a01b0316836040516127cf919061509a565b600060405180830381855afa9150503d806000811461280a576040519150601f19603f3d011682016040523d82523d6000602084013e61280f565b606091505b509150915060008180602001905181019061282a91906150c9565b90508280156128365750805b979650505050505050565b600080808080612852876003614eca565b61285d90600c614eca565b6001600160401b03811115612874576128746150eb565b60405190808252806020026020018201604052801561289d578160200160208202803683370190505b5090508760001b816000815181106128b7576128b7614edd565b6020026020010181815250508660001b816001815181106128da576128da614edd565b6020026020010181815250508560001b816002815181106128fd576128fd614edd565b60200260200101818152505060005b8781101561295e578a8a8281811061292657612926614edd565b905060200201358282600361293b9190614eca565b8151811061294b5761294b614edd565b602090810291909101015260010161290c565b508a51518161296e896003614eca565b8151811061297e5761297e614edd565b6020908102919091018101919091528b5101518161299d896003614eca565b6129a8906001614eca565b815181106129b8576129b8614edd565b60209081029190910101528a5160400151816129d5896003614eca565b6129e0906002614eca565b815181106129f0576129f0614edd565b60209081029190910101528a516060015181612a0d896003614eca565b612a18906003614eca565b81518110612a2857612a28614edd565b6020908102919091018101919091528b01515181612a47896003614eca565b612a52906004614eca565b81518110612a6257612a62614edd565b6020908102919091018101919091528b810151015181612a83896003614eca565b612a8e906005614eca565b81518110612a9e57612a9e614edd565b6020908102919091018101919091528b01516040015181612ac0896003614eca565b612acb906006614eca565b81518110612adb57612adb614edd565b6020908102919091018101919091528b01516060015181612afd896003614eca565b612b08906007614eca565b81518110612b1857612b18614edd565b602090810291909101015260408b01515181612b35896003614eca565b612b40906008614eca565b81518110612b5057612b50614edd565b60209081029190910181019190915260408c0151015181612b72896003614eca565b612b7d906009614eca565b81518110612b8d57612b8d614edd565b60209081029190910101526040808c0151015181612bac896003614eca565b612bb790600a614eca565b81518110612bc757612bc7614edd565b602090810291909101015260408b01516060015181612be7896003614eca565b612bf290600b614eca565b81518110612c0257612c02614edd565b602002602001018181525050612c2281604051602001611ab89190615101565b9150612c2d82612d38565b6040805160208101869052929750909550612c489101611ab8565b91506000612c5583612d38565b50959c949b509499509097509195505050505050565b6000806000612c78614d0a565b85815260a0858101805151602080850191909152815181015160408086019190915282518101516060808701919091529251830151608086015260c0808a0180515195870195909552845183015190860152835181015160e086015292518201516101008501528188018051516101208601528051820151610140860152805184015161016086015251909101516101808401529051612d1e91611ab891849101615137565b9150612d2982612d38565b90979096509194509092505050565b600080826001600160801b038116608082901c612d5482611fcb565b9450612d5f81611fcb565b9350505050915091565b6000612d76846007614864565b90507f183227397098d014dc2822db40c0ac2e9419f4243cdcb848a1f0fac9f80000006000612dd9612dd3612dac856003612021565b610556612dc8612dbd8b6000614864565b6105568c601c614864565b6105568b601b614864565b83611feb565b9050612e5a612e4f612e36612e1d612e048561055b612df98d6002614864565b6105568e601b614864565b61055b612e128c6003614864565b6105568d601c614864565b61055b612e2b8b6004614864565b6105568c601d614864565b61055b612e448a6005614864565b6105568b601e614864565b61055b886001614864565b9050612e798161055b612e6e866001612021565b6105568a6026614864565b9050612e858184611feb565b9050612e918185611feb565b85525060009050612ecd612ec2612eb7612eac88601b614864565b61055b89601e614864565b61057a886023614864565b61055b876000614864565b9050612ede81610556846002612021565b9050612eef81610556846001612021565b9050612efb8183611feb565b9050612f078184611feb565b9050808460015b60200201525050505050565b6000806000612f52612f48612f3089601b614864565b61055b612f3e8b6011614864565b8a60600151611feb565b8760800151612006565b9050612f8b81610556612f81612f698b601c614864565b61055b612f778d6012614864565b8c60600151611feb565b8960800151612006565b9050612fb081610556612f81612fa28b601d614864565b61055b612f778d6013614864565b9050612fd581610556612f81612fc78b601e614864565b61055b612f778d6014614864565b925060009050612ffa612f48612fec89601b614864565b61055b612f3e8b600d614864565b905061301f81610556612f816130118b601c614864565b61055b612f778d600e614864565b905061304481610556612f816130368b601d614864565b61055b612f778d600f614864565b905061306981610556612f8161305b8b601e614864565b61055b612f778d6010614864565b91506000905061309161308b61308089601f614864565b61055b8a6019614864565b84611feb565b90506130c68161057a6130c06130a88b6027614864565b61055b6130b68d601a614864565b8c60a00151611feb565b85611feb565b90506130d28185611feb565b60408601525060006130f66130c06130eb89601a614864565b6105568a6027614864565b606090950194909452505050505050565b60008061316661314e613136613121612f818a6015614864565b61055b61312f8b6016614864565b8a51611feb565b61055b6131448a6017614864565b8960200151611feb565b61055b61315c896018614864565b8860400151611feb565b9150600061319e61318561317b89601b614864565b8860800151612006565b61055b6131938a6003614864565b6105568b6023614864565b905060006131c96131b089601c614864565b61055b6131be8b6000614864565b6105568c6024614864565b905060006131f46131db8a601d614864565b61055b6131e98c6001614864565b6105568d6025614864565b905061323461321c61320e8561055b868d60000151611feb565b61055b848c60200151611feb565b61055b61322a8c6004614864565b8b60400151611feb565b9350505050600061324961308b886020614864565b9050600061325b61308b896020614864565b9050600061329461327b6132708b6022614864565b61055b8c6006614864565b61057a6132898c6022614864565b6105568d6006614864565b905060006132b96132b36132a88789611feb565b6105568d6020614864565b83612021565b90506132c58188611feb565b905060006132ee6132e06132da8d6006614864565b87611feb565b61057a6132da8e6021614864565b60808a018390529050808960055b60200201525050505050505050505050565b600061331c60006001612021565b9050600061332c60006002612021565b9050600061333c60006003612021565b9050600061335961334e88601c614864565b61057a89601b614864565b9050600061337661336b89601d614864565b61057a8a601c614864565b905060006133936133888a601e614864565b61057a8b601d614864565b905060006133b06133a58b6023614864565b61057a8c601e614864565b9050836133c181610556818b612006565b90506133d181610556878a612006565b90506133e1816105568789612006565b90506133f2816105568d6008614864565b90506133fe818a611feb565b60c08b0152508261341381610556818b612006565b905061342381610556868a612006565b9050613433816105568689612006565b9050613444816105568d6008614864565b9050613450818a611feb565b60e08b0152508161346581610556818b612006565b905061347581610556858a612006565b9050613485816105568589612006565b9050613496816105568d6008614864565b90506134a2818a611feb565b6101008b015250806134b881610556818b612006565b90506134c881610556848a612006565b90506134d8816105568489612006565b90506134e9816105568d6008614864565b90506134f5818a611feb565b9050808a60096132fc565b6135406040518060e00160405280600081526020016000815260200160008152602001600081526020016000815260200160008152602001600081525090565b61354b84601c614864565b815261355884601d614864565b6020820152613568846023614864565b6040820152613578846026614864565b6060820152613588846025614864565b6080820152613598846024614864565b60a082015260006135aa856002614864565b905060006135b9866000614864565b905060006135cf84604001518560000151612021565b905060006135e585602001518660200151611feb565b606086015190915086906000906135fc9080611feb565b9050600061361b61361589602001518a60600151611feb565b88611feb565b9050600061363b6136348a60a001518b60400151612006565b8a51612006565b905061364a6132da8288611feb565b905061367161366b61366561365f8487612021565b88612021565b84612006565b83612006565b905061369961368e6136838387611feb565b6105568f6009614864565b61055660018a612021565b6101408c015250505050602085015160808601516000916136b991612006565b905060006136d86136ce886060015188611feb565b8860200151612021565b905060006136fe6136e98487611feb565b61055b6130c08b60a001518c60000151612021565b905061372661371b613710838c611feb565b6105568e6009614864565b610556600189612021565b6101608b015250600091506137489050613741836011612006565b8751611feb565b905060006137568384612006565b90506137628182612006565b90506000613771836009611feb565b905061379b61379561308b61378e8b60a001518c60000151612006565b8b51612006565b82612021565b60c089018190526000906137b79061361590613683908d611feb565b90506137ca8b600a602002015182612006565b6101408c015250508651600092506137f29150613741906137eb9080612006565b8851612006565b9050600061383461380f836105568a600001518b60a00151612021565b602089015161057a906138229080612006565b6105568b602001518c60800151612006565b905061385189600b602002015161055b613615613683858d611feb565b89600b602002015250505050505050505050565b61390f604051806102c00160405280600081526020016000815260200160008152602001600081526020016000815260200160008152602001600081526020016000815260200160008152602001600081526020016000815260200160008152602001600081526020016000815260200160008152602001600081526020016000815260200160008152602001600081526020016000815260200160008152602001600081525090565b61394461392b61392087601b614864565b610556886024614864565b61055b613939886023614864565b61055689601c614864565b815261398961397e61396561395a88601b614864565b61055689601e614864565b61055b61397389601c614864565b6105568a601d614864565b61057a876025614864565b6040820181905261399e90600160441b611feb565b604082018190526139b49061057a876026614864565b6040820181905281516139c79190612006565b604082018190526139dd90610556876005614864565b604082015280516139f290600160441b611feb565b808252613a129061055b613a07886023614864565b610556896024614864565b80825260208201819052613a2e9061057a612eac88601d614864565b60208201819052613a4490610556876004614864565b6020820152805160608201819052613a619061055b87601e614864565b60608201819052613a859061057a613a7a886025614864565b61055b896026614864565b60608201819052613a9b90610556876000614864565b8160600181815250506000613ac5613abb83602001518460400151612006565b8360600151612006565b9050613ad681610556886003614864565b9050613aee613ae6876024614864565b614000611feb565b60808301819052613b049061055b886023614864565b60808301819052613b1790614000611feb565b60808301819052613b2d9061055b88601d614864565b60808301819052613b4090614000611feb565b60808301819052613b569061055b88601c614864565b60808301819052613b6990614000611feb565b60808301819052613b7f9061055b88601b614864565b60808301819052613b959061057a88601e614864565b60808301819052613bab90610556886005614864565b6080830152613bbe613ae6876025614864565b60a08301819052613bd49061055b886024614864565b60a08301819052613be790614000611feb565b60a08301819052613bfd9061055b886023614864565b60a08301819052613c1090614000611feb565b60a08301819052613c269061055b88601e614864565b60a08301819052613c3990614000611feb565b60a08301819052613c4f9061055b88601d614864565b60a08301819052613c659061057a886026614864565b60a08301819052613c7b90610556886000614864565b60a083018190526080830151600091613c949190612006565b9050613ca581610556896004614864565b9050613cbf613cb588601d614864565b8760400151611feb565b60c08401819052613cd89061055b6131448a601c614864565b60c08401819052613cf89061055b613cf18a601b614864565b8951611feb565b60c08401819052613d0e9061055b896001614864565b60c0840181905260e08401819052613d2b9061057a89601e614864565b60c0840152613d3e61334e886023614864565b610140840152613d5d613d52886026614864565b61057a89601e614864565b610120840152610140830151613d8290613d779080611feb565b846101400151612021565b610280840152610140830151613dc590613dba90613db39061055660016000805160206151a3833981519152614ef3565b6001612006565b846101200151611feb565b6101608401819052613dfc90613dee90610556613de38b6002614864565b6105568c6003614864565b6105566132da8a600a614864565b6101a0860152610280830151613e1e90613dee90610556613de38b6002614864565b6101c086015260c0830151613e4690610556613e3b8a6002614864565b6105568b6003614864565b6101e08401526000613e66613e5c89601e614864565b8560e00151612021565b9050613e756137958283611feb565b6101a0850152613e8961315c896025614864565b6101008501819052613ead9061055b613ea38b6024614864565b8a60200151611feb565b6101008501819052613ec79061055b61312f8b6023614864565b610100850152613ee6613edb896026614864565b856101000151612021565b6101008501526000613efc6133888a6025614864565b9050613f52613f2b612dd3613db388610140015160016000805160206151a38339815191526105569190614ef3565b610556613db388610100015160016000805160206151a38339815191526105569190614ef3565b610180860152610100850151613f7790613f6c9080611feb565b866101000151612021565b6101c0860152610180850151613faa90613f96906105568c6007614864565b610556613fa48c600a614864565b89611feb565b6101e0880152610280850151613fc990613f96906105568c6007614864565b6102008801526101c0850151613fe890613f96906105568c6007614864565b6102208801526101a0850151614003906105568b6007614864565b6102008601526140226140178a6024614864565b61057a8b601c614864565b610220860152610140850151614062906133889061405790613db39061055660016000805160206151a3833981519152614ef3565b876102200151611feb565b61024086018190526101e086015161026087018190526140999161055b9061055661408e8e6005614864565b6105568f6002614864565b610260860181905260c08601516140bd919061055b9061055661408e8e6000614864565b61026086018190526102008601516140d59190612006565b61026086018190526140eb906136659086612006565b6102a0860181905261410590610556613fa48c600a614864565b6102a0860181905287600c6020020152505050505050505050565b6141a760405180610220016040528060008152602001600081526020016000815260200160008152602001600081526020016000815260200160008152602001600081526020016000815260200160008152602001600081526020016000815260200160008152602001600081526020016000815260200160008152602001600081525090565b6141c06141b585601b614864565b61055b866002614864565b81526141db6141d085601c614864565b61055b866003614864565b60208201526141f96141ee85601d614864565b61055b866004614864565b604082015261421761420c85601e614864565b61055b866005614864565b60608201528051614249906142429061423b906142349080611feb565b8451611feb565b8351611feb565b8251611feb565b608082015260208101516142879061427d90614273906142699080611feb565b8460200151611feb565b8360200151611feb565b8260200151611feb565b60a082015260408101516142c5906142bb906142b1906142a79080611feb565b8460400151611feb565b8360400151611feb565b8260400151611feb565b60c08201526060810151614303906142f9906142ef906142e59080611feb565b8460600151611feb565b8360600151611feb565b8260600151611feb565b60e0820152608081015160a082015161431c9190612006565b61010082015260c081015160e08201516143369190612006565b61012082015260a081015161435a9061434f9080612006565b826101200151612006565b61014082015260e081015161437e906143739080612006565b826101000151612006565b6101608201526101208101516143949080612006565b6101e082018190526143b5906143aa9080612006565b826101600151612006565b6101e08201526101008101516143cb9080612006565b6101a082018190526143ec906143e19080612006565b826101400151612006565b6101a0820181905261016082015161440391612006565b6101808201526101408101516101e082015161441f9190612006565b6101c0820152614433612dd385600b614864565b610200820181905261024084015161018083015161445e9261055b916105569061057a8a6023614864565b836012602002015261448e836013602002015161055b836102000151610556856101a0015161057a8a6024614864565b83601360200201526144be836014602002015161055b836102000151610556856101c0015161057a8a6025614864565b83601460200201526144ee836015602002015161055b836102000151610556856101e0015161057a8a6026614864565b836015602002015250505050565b61455960405180610160016040528060008152602001600081526020016000815260200160008152602001600081526020016000815260200160008152602001600081526020016000815260200160008152602001600081525090565b6000604051806080016040528061458f7f10dc6e9c006ea38b04b1e03b4bd9490c0d03f98929ca1d7fb56821fd19d3b6e7611fcb565b81526020016145bd7f0c28145b6a44df3e0149b3d0a30b3bb599df9756d4dd9b84a86b38cfb45a740b611fcb565b81526020016145ea7e544b8338791518b2c7645a50392798b21f75bb60e3596170067d00141cac15611fcb565b81526020016146187f222c01175718386f2e2e82eb122789e352e105a3b8fa852613bc534433ee428b611fcb565b9052905061463561462a86601b614864565b61055b876002614864565b61012083018190526146699061465e90613dba906146539080611feb565b856101200151611feb565b836101200151611feb565b825261467685601c614864565b602083015261468685601d614864565b604083015261469685601e614864565b6060830152815160208301516146be91613abb916146b49190612006565b8460400151612006565b60808301526146d161308b86600c614864565b61014083015281516146f3906146e990836000610df8565b8360800151612006565b60a083015261471f846016602002015161055b8461014001516105568660a0015161057a8b6023614864565b6102c0850152602082015161473a906146e990836001610df8565b60c0830152614766846017602002015161055b8461014001516105568660c0015161057a8b6024614864565b6102e08501526040820151614781906146e990836002610df8565b60e08301526147ad846018602002015161055b8461014001516105568660e0015161057a8b6025614864565b61030085015260608201516147c8906146e990836003610df8565b6101008301526147f6846019602002015161055b84610140015161055686610100015161057a8b6026614864565b846019612f0e565b600061480b8184816107da565b905060015b601a81101561485d576148538261055b8684601a811061483257614832614edd565b602002015186614843600187614ef3565b60198110610df857610df8614edd565b9150600101614810565b5092915050565b6000828260278111156148795761487961516c565b6028811061488957614889614edd565b60200201519392505050565b604051806103c001604052806000815260200160008152602001600081526020016148be614cf0565b81526020016148cb614cf0565b81526020016148d8614cf0565b81526020016148e5614cf0565b81526020016148f2614cf0565b81526020016148ff614cf0565b815260200161490c614cf0565b8152602001614919614cf0565b8152602001614926614cf0565b8152602001614933614cf0565b8152602001614940614cf0565b815260200161494d614cf0565b815260200161495a614cf0565b8152602001614967614cf0565b8152602001614974614cf0565b8152602001614981614cf0565b815260200161498e614cf0565b815260200161499b614cf0565b81526020016149a8614cf0565b81526020016149b5614cf0565b81526020016149c2614cf0565b81526020016149cf614cf0565b81526020016149dc614cf0565b81526020016149e9614cf0565b81526020016149f6614cf0565b8152602001614a03614cf0565b8152602001614a10614cf0565b905290565b604051806101c00160405280614a29614b7c565b8152602001614a36614b7c565b8152602001614a43614b7c565b8152602001614a50614b7c565b8152602001614a5d614b7c565b8152602001614a6a614b7c565b8152602001614a77614b7c565b8152602001614a84614b7c565b8152602001614a91614d29565b8152602001614a9e614d57565b8152602001614aab614d76565b8152602001614ab8614c18565b8152602001614ac5614b7c565b8152602001614a10614b7c565b604051806101000160405280614ae6614ba4565b8152602001614af3614bda565b8152602001614b00614c18565b8152602001614b0d614c18565b8152602001600081526020016000815260200160008152602001600081525090565b604051806108c001604052806046906020820280368337509192915050565b604051806108c001604052806046905b614b66614cf0565b815260200190600190039081614b5e5790505090565b6040518060800160405280600081526020016000815260200160008152602001600081525090565b6040518060c001604052806000815260200160008152602001600081526020016000815260200160008152602001600081525090565b6040518061032001604052806019906020820280368337509192915050565b6040518061012001604052806009906020820280368337509192915050565b604051806103800160405280601c906020820280368337509192915050565b6040518061052001604052806029906020820280368337509192915050565b60405180610da00160405280606d906020820280368337509192915050565b604051806103a00160405280601d906020820280368337509192915050565b6040518060a001604052806005906020820280368337509192915050565b6040518061010001604052806008906020820280368337509192915050565b604051806103400160405280601a906020820280368337509192915050565b604051806040016040528060008152602001600081525090565b604051806101a00160405280600d906020820280368337509192915050565b604051806103800160405280601c905b614d41614cb2565b815260200190600190039081614d395790505090565b6040518061050001604052806028906020820280368337509192915050565b604051806103600160405280601b905b614d8e614b7c565b815260200190600190039081614d865790505090565b60008060008060408587031215614dba57600080fd5b84356001600160401b03811115614dd057600080fd5b8501601f81018713614de157600080fd5b80356001600160401b03811115614df757600080fd5b876020828401011115614e0957600080fd5b6020918201955093508501356001600160401b03811115614e2957600080fd5b8501601f81018713614e3a57600080fd5b80356001600160401b03811115614e5057600080fd5b8760208260051b8401011115614e6557600080fd5b949793965060200194505050565b634e487b7160e01b600052601160045260246000fd5b8082028115828204841417611fe557611fe5614e73565b60008085851115614eb057600080fd5b83861115614ebd57600080fd5b5050820193919092039150565b80820180821115611fe557611fe5614e73565b634e487b7160e01b600052603260045260246000fd5b81810381811115611fe557611fe5614e73565b600060018201614f1857614f18614e73565b5060010190565b80356020831015611fe557600019602084900360031b1b1692915050565b60008183825b6009811015614f62578151835260209283019290910190600101614f43565b5050506101208201905092915050565b634e487b7160e01b600052601260045260246000fd5b600082614f9757614f97614f72565b500490565b60008183825b6029811015614fc1578151835260209283019290910190600101614fa2565b5050506105208201905092915050565b60008183825b606d811015614ff6578151835260209283019290910190600101614fd7565b505050610da08201905092915050565b60008183825b601d81101561502b57815183526020928301929091019060010161500c565b5050506103a08201905092915050565b60008183825b6005811015615060578151835260209283019290910190600101615041565b50505060a08201905092915050565b60008261507e5761507e614f72565b500690565b60008161509257615092614e73565b506000190190565b6000825160005b818110156150bb57602081860181015185830152016150a1565b506000920191825250919050565b6000602082840312156150db57600080fd5b815180151581146119cc57600080fd5b634e487b7160e01b600052604160045260246000fd5b8151600090829060208501835b8281101561512c57815184526020938401939091019060010161510e565b509195945050505050565b60008183825b600d81101561515c57815183526020928301929091019060010161513d565b5050506101a08201905092915050565b634e487b7160e01b600052602160045260246000fdfe30644e72e131a029b85045b68181585d97816a916871ca8d3c208c16d87cfd4730644e72e131a029b85045b68181585d2833e84879b9709143e1f593f0000001a2646970667358221220cac51ca623f58887a50ae3035a213797ce633ba76079ee6bdfc046812a9a0e7964736f6c634300081b0033",
  "linkReferences": {},
  "deployedLinkReferences": {}
}