{
  "_format": "hh-sol-artifact-1",
  "contractName": "DepositVerifier",
  "sourceName": "contracts/DepositVerifier.sol",
  "abi": [
    {
      "inputs": [],
      "name": "ProofLengthWrong",
      "type": "error"
    },
    {
      "inputs": [],
      "name": "PublicInputsLengthWrong",
      "type": "error"
    },
    {
      "inputs": [],
      "name": "ShpleminiFailed",
      "type": "error"
    },
    {
      "inputs": [],
      "name": "SumcheckFailed",
      "type": "error"
    },
    {
      "inputs": [
        {
          "internalType": "bytes",
          "name": "proof",
          "type": "bytes"
        },
        {
          "internalType": "bytes32[]",
          "name": "publicInputs",
          "type": "bytes32[]"
        }
      ],
      "name": "verify",
      "outputs": [
        {
          "internalType": "bool",
          "name": "",
          "type": "bool"
        }
      ],
      "stateMutability": "view",
      "type": "function"
    }
  ],
  "bytecode": "0x60e0604052348015600f57600080fd5b50618000608052600f60a052600060c05260805160a05160c0516151f761005d600039600061058601526000818161063401528181610c230152610cc10152600061052d01526151f76000f3fe608060405234801561001057600080fd5b506004361061002b5760003560e01c8063ea50d0e414610030575b600080fd5b61004361003e366004614da3565b610057565b604051901515815260200160405180910390f35b60006100666101b86020614e88565b8414610085576040516376ba560560e11b815260040160405180910390fd5b600061008f6101a3565b9050600061009d87876101b8565b604083015190915084146100c45760405163fa06659360e01b815260040160405180910390fd5b60006100dd828787866000015187604001516001610466565b905061012c868680806020026020016040519081016040528093929190818152602001838360200280828437600092019190915250508451606081015160809091015190925090506001610516565b815160a00152600061013e838361062b565b90508061015e576040516313f8744360e31b815260040160405180910390fd5b600061016b848685610732565b90508061018b576040516352ec174560e11b815260040160405180910390fd5b8180156101955750805b9a9950505050505050505050565b6101ab614894565b6101b3610fbd565b905090565b6101c0614a14565b6101d66101d1608060008587614e9f565b61189f565b81526101ea6101d161010060808587614e9f565b60208201526102026101d16101806101008587614e9f565b604082015261021a6101d16102006101808587614e9f565b60a08201526102326101d16102806102008587614e9f565b60c082015261024a6101d16103006102808587614e9f565b60608201526102626101d16103806103008587614e9f565b60e082015261027a6101d16104006103808587614e9f565b608082015261040060005b601c8110156103135760005b600881101561030a576102bd8684876102ab826020614ec9565b926102b893929190614e9f565b611975565b84610100015183601c81106102d4576102d4614edc565b602002015182600881106102ea576102ea614edc565b6020020181815250506020836103009190614ec9565b9250600101610291565b50600101610285565b5060005b6028811015610368576103318583866102ab826020614ec9565b836101200151826028811061034857610348614edc565b60200201818152505060208261035e9190614ec9565b9150600101610317565b5060005b6103786001601c614ef2565b8110156103ce5761039d858386610390826080614ec9565b926101d193929190614e9f565b83610140015182601b81106103b4576103b4614edc565b60200201526103c4608083614ec9565b915060010161036c565b5060005b601c811015610423576103ec8583866102ab826020614ec9565b83610160015182601c811061040357610403614edc565b6020020181815250506020826104199190614ec9565b91506001016103d2565b50610435848285610390826080614ec9565b610180830152610446816080614ec9565b9050610459848285610390826080614ec9565b6101a08301525092915050565b61046e614ad1565b600061047f888888888888876119d2565b908352905061048e8189611a29565b602084019190915290506104a181611bc6565b604084019190915290506104b58882611c29565b606084019190915290506104c98882611d00565b608084019190915290506104dd8882611d8e565b60a084019190915290506104f18882611efe565b60c084019190915290506105058882611f72565b5060e0830152509695505050505050565b6000600180826105608661055b896105566105518a7f0000000000000000000000000000000000000000000000000000000000000000614ec9565b611fca565b611fea565b612005565b9050600061057f8761057a8a6105566105518b6001614ec9565b612020565b905060005b7f00000000000000000000000000000000000000000000000000000000000000008110156106135760006105d08b83815181106105c3576105c3614edc565b6020026020010151611fca565b90506105e0866105568684612005565b95506105f0856105568584612005565b94506105fc848b612005565b9350610608838b612020565b925050600101610584565b5061061e8484612052565b9998505050505050505050565b6000806001815b7f000000000000000000000000000000000000000000000000000000000000000081101561070657600086610100015182601c811061067357610673614edc565b6020020151905060006106868286612061565b9050806106a6576040516313f8744360e31b815260040160405180910390fd5b6000876060015184601c81106106be576106be614edc565b602002015190506106cf838261207f565b95506106f6886040015185601c81106106ea576106ea614edc565b60200201518683612233565b9450505050806001019050610632565b506000610722866101200151866000015187602001518561225f565b90508281145b9695505050505050565b60006107836040518061012001604052806000815260200160008152602001600081526020016000815260200160008152602001600081526020016000815260200160008152602001600081525090565b60006107928460a001516122ce565b905061079c614b2e565b6107a4614b4d565b60e08601516107c4906107bf908560005b6020020151612020565b612333565b60a085015260e08601516107e4906107bf908560005b6020020151612005565b60c080860182905260a0860151908801516108039261055b9190611fea565b845260a08601516108319061081790612333565b6105568660a0015161057a8a60c001518960c00151611fea565b602085015260018252610180880151610849906123a3565b8152600160608501819052600060808601525b602381116109035761087e61087486600001516123e3565b8660600151611fea565b83826046811061089057610890614edc565b602002015260808501516101208a01516108d3919061055b906108b4600186614ef2565b602881106108c4576108c4614edc565b60200201518860600151611fea565b8560800181815250506108ee85606001518860800151611fea565b60608601526108fc81614f05565b905061085c565b50600061091260236001614ec9565b90505b602881116109935761092d61087486602001516123e3565b83826046811061093f5761093f614edc565b602002015260808501516101208a0151610963919061055b906108b4600186614ef2565b85608001818152505061097e85606001518860800151611fea565b606086015261098c81614f05565b9050610915565b50606087015181600160200201526080870151816002602002015260a0870151816003602002015260c0870151816004602002015260e0870151816005602002015261010087015181600660200201526101208701518160076020020152610140870151816008602002015261016087015181600960200201526101a087015181600a602002015261018087015181600b60200201526101c087015181600c60200201526101e087015181600d602002015261020087015181600e602002015261022087015181600f60200201526102408701518160106020020152610260870151816011602002015261028087015181601260200201526102a087015181601360200201526102c087015181601460200201526102e08701518160156020020152610300870151816016602002015261032087015181601760200201526103408701518160186020020152610360870151816019602002015261038087015181601a60200201526103a087015181601b60200201528751610b14906123a3565b6103808201526020880151610b28906123a3565b6103a08201526040880151610b3c906123a3565b6103c08201526060880151610b50906123a3565b6103e08201526080880151610b64906123a3565b61040082015260e0880151610b78906123a3565b61042082015260a0880151610b8c906123a3565b61044082015260c0880151610ba0906123a3565b6104608201528751610bb1906123a3565b6104808201526020880151610bc5906123a3565b6104a08201526040880151610bd9906123a3565b6104c08201526060880151610bed906123a3565b6104e08201526080880151610c01906123a3565b610500820152606086015160808501516101608a0151600092610c47929091877f00000000000000000000000000000000000000000000000000000000000000006123fd565b805160a0870151919250610c5a91611fea565b604086018190526101608a01515160c0890151610c8a929161055b91610c809190611fea565b8860c00151611fea565b604086015260c0870151610c9d9061251b565b606086015260005b610cb16001601c614ef2565b811015610eb5576000610ce560017f0000000000000000000000000000000000000000000000000000000000000000614ef2565b821015905080610e5b57610d186107bf8a60e0015188856001610d089190614ec9565b601c81106107b5576107b5614edc565b60a088015260e0890151610d46906107bf9088610d36866001614ec9565b601c81106107da576107da614edc565b60c0880152606087015160a0880151610d5f9190611fea565b60e0880152606087015160c08a0151610d7b91610c8091611fea565b6101008801819052610d9d90610d90906123e3565b61055b8960e001516123e3565b8583610dab60286001614ec9565b610db59190614ec9565b60468110610dc557610dc5614edc565b60200201526101008701516101608c0151600091610e0291610de8866001614ec9565b601c8110610df857610df8614edc565b6020020151611fea565b9050610e1e8161055b8a60e0015187876001610de89190614ec9565b9050610e2e886040015182612005565b6040890152606088015160c08b0151610e5491610e4a91611fea565b8b60c00151611fea565b6060890152505b610e7f8b610140015183601b8110610e7557610e75614edc565b60200201516123a3565b8483610e8d60286001614ec9565b610e979190614ec9565b60468110610ea757610ea7614edc565b602002015250600101610ca5565b5060408051808201909152600181526002602082015282610ed8601c6028614ec9565b60468110610ee857610ee8614edc565b6020020152604085015183610eff601c6028614ec9565b60468110610f0f57610f0f614edc565b60200201526101a0890151600090610f26906123a3565b90508083610f36601c6028614ec9565b610f41906001614ec9565b60468110610f5157610f51614edc565b602002015260e088015184610f68601c6028614ec9565b610f73906001614ec9565b60468110610f8357610f83614edc565b60200201526000610f948486612527565b90506000610fa1836125ee565b9050610fad8282612636565b9c9b505050505050505050505050565b610fc5614894565b50604080516103c0810182526180008152600f602080830191909152600082840152825180840184527f25433213a412865a649541c7ca89c179065a1f9bdea8ad62244a0956a4287e0981527f01f100be253ff6d818fb29f05aed5d43ca78c3b0eb46960af76d7ce868e3eac4818301526060830152825180840184527f2da7798c52e42c083459976736d8eadf1b17306ea151e861ccc7bc09e0be82f881527e11ce4bc1fd1561f7fae530242cab76bba2d5820bba037cf7a54505088e70c9818301526080830152825180840184527f23ad0431070b246eb872b4a09d1d1e9921506fa05a4a565e850230498bf0c1aa81527f27a6600183b14390643e09909243d6e0089ba727ad782983e1178203198ea1588183015260a0830152825180840184527f2596bf9ad669c9351e2f7658e3fad229d9833d7acaabe42619deffcbf6b21e9881527f21bbd0ad4c40c0e3c5e1739ebf7af4e68f4dceda481f9b4aca01f6c259ea783e8183015260c0830152825180840184527f1626c49e9cfa7a23bee019582c4f9975cd927f167fb5c57b144434038b152ac281527f16e34c5bec0785989329a67c93ed509fb3a8cad2fc1339beeca89f2c54c431fb8183015260e0830152825180840184527e22b9e1b8d6de4b819dea1036fb7ddf16749c5c3b8d5b2660562a84fb3014a281527f26960cc9691b708d0f7e294dd0ba5d832b067d36956938aef9aa969f7627a2b581830152610100830152825180840184527f0b6cc6a6062c28302d2e66b76d886c9050cce3266f04d5a005dd49c0a9d4ea8481527f26e3e06bd7b667feb88361d5283bf1bef7d98f79fbe608d99c81dba2fe4b6cba81830152610120830152825180840184527f2151fd5fcbb8fbdd13b44b9dc02ccbf0ea8e9bed3f6820c11334270cdf8bec8e81527f13d41ad2788791ffeab454fcf698332ec7b1e6ccb7fa4bbf23defa0a9495909c81830152610140830152825180840184527f1045debc0e439c9a3fdc0b43e25a92cc6b61d0d6791c7be3d06f3c34fd5b08ba81527f26f8c3b7fe88457574b551661268abccb4ab1cdbe83222656b45ce03759f5d1081830152610160830152825180840184527f0e4c12ad5aae6a7278e3a55cc62d7efef26d8807103d1a849c79fc034faec96081527f0a6dc6e75ca8e4442f3decd36815af6496a1936537eca0493acddb7f59e90da181830152610180830152825180840184527f1633e183b878098196ff81c155732edb23a0abbb635ff7da72ec7cd5609a891b81527f0218dd9ca183b1a7544b56e30e28e1f65d968e5c1a73a18d57f24d2363cac2f5818301526101a0830152825180840184527f264d63fab01031b68d0a6ec899069f7e7d79cf63e958486180b5c3765aa4da8181527f1b562a86e45dfec07450349ecdb03b8a2b2306322714e3545097b51eac7411f9818301526101c0830152825180840184527f07c54bc2c1f0be5dd62d292fb5aa267646af9944ba36a59c0a0094c845ed533081527f1bc87d3f582c306f95d729d9c4b4637b4c0f1968c3562f3992cdcd7d2614a860818301526101e0830152825180840184527f1db7ce2dff20d48af07b932336cb2a0df9947c7b5390065e488bc7f66bc5242a81527f1b22157134e57c562c030dbce5a43ad13276dd4732f07e78ac8d38a80f64e01e81830152610200830152825180840184527f2d843ed308ddd04c3e4c7561a943071b363fb62c9554a05e18c90065674ba65f81527f10e2fe66f0194c6799f99baa5096f527b73c0f571bc2bb6eb2807b263dddff5a81830152610220830152825180840184527f2951f8eb51e571e881dcb2f207327f074b925886f5be05cd653d85491e11e3ca81527f1e0e7bf0abd0d9b8efa02a1f0eba1d45249f66660f67fd1555e8f24282d56e7381830152610240830152825180840184527f20dfe9467d8f05e4e659a551859acf189e51a315e8a8b0389046fa802a6839df81527f1e756d459815d72a3a061e3c305d1718f8ce4dff44deef9dd96e57cba585fed781830152610260830152825180840184527f0e255b68de4528513694c5ecc3f30d53bab5175ec7281f0429921959f8e778ed81527f2836abb9639ec55d85b6145023e4f19575b6a6e19ffee938bf10ab8cb813988b81830152610280830152825180840184527f04cbd9165de4e5623338b5c65ed67c8ed1c301a93083504050482b3e7f7a16bf81527f1187ed03092ea056d0b4c46702b70b2e485fbd26f84c125a69d8cf60681dcbd4818301526102a0830152825180840184527e2f17e91fdec06b52988a9fc58fcdbdb042902eefcade51730b48f81519dbe081527f1f27b6d9fd3221d22cc6d2fba25f068ae2ddbefd12c5893a3854a0bb3fd90f0f818301526102c0830152825180840184527f2f939ba1fa7d97605bb1d900448d874355801c34b2315f70c5946002d1ccaed081527f0ca042854c1fbca48857e2aefcd2e49965f506990764906e26c7847c8a45f130818301526102e0830152825180840184527f11f22072e37c9521357487db1407080d8896883bbb8d2ed9e4f80f6033e133ec81527f095286a6131303afb53eb022e46dcded10fbae0802a934e804904825eaa3620c81830152610300830152825180840184527f02f3eb4a53d98e29ba5429b34fea4c1a554548025dfbba6ece0058a0faf9317e81527f0c3fd4ba46fabd19d701d2013630e8cc1fc815751944a9a86f40723d39fea38281830152610320830152825180840184527f1317cf06bcee90af6970d934a3636668486179d9721fd20cbb10cdb604036f2e81527f065fd9914b612a2aea1a830f25abe6d801b29b280f45a69796de5a15ff8a387a81830152610340830152825180840184527f0d4f8ffe2aba6dc146478490c574924c4db5fde59766612c4ea965c87a17255881527f269a57a4c27d4043eedbd9fbc8b44982783fb779530289e0298306a5172431c281830152610360830152825180840184526001815260028183015261038083015282518084019093527f21ea365cfa49b1489adfd4ad9a4abddab4f837502b650b934274ffd3d0905bd583527f27c361af4c5120bc5db4c39117485f40cdce84459ad46648da5e7c25ce3a9f99908301526103a081019190915290565b6118a7614b7b565b608082146118f25760405162461bcd60e51b81526020600482015260136024820152721a5b9d985b1a5908189e5d195cc81c1bda5b9d606a1b60448201526064015b60405180910390fd5b60408051608081019091528061190c602060008688614e9f565b61191591614f1e565b815260209081019061192b906040908688614e9f565b61193491614f1e565b8152602001611947606060408688614e9f565b61195091614f1e565b8152602001611963608060608688614e9f565b61196c91614f1e565b90529392505050565b6000602082146119be5760405162461bcd60e51b815260206004820152601460248201527334b73b30b634b210313cba32b99039b1b0b630b960611b60448201526064016118e9565b6119cb6105518385614f1e565b9392505050565b6119da614ba3565b60006119ea898989898989612840565b604086019190915260208501919091529083529250611a09838a612c6a565b608085019190915260608401919091529199919850909650505050505050565b611a31614bd9565b6000611a3b614bf8565b84815260e0848101805151602080850191909152815181015160408086019190915282518101516060808701919091529251830151608080870191909152880180515160a0870152805183015160c08701528051820151948601949094529251909101516101008401529051611ad291611ab791849101614f3c565b60405160208183030381529060405280519060200120611fca565b9150611add82612d37565b6020850152835260015b611af360026019614f87565b811015611b7357611b1083604051602001611ab791815260200190565b9250611b1b83612d37565b85611b27846002614e88565b60198110611b3757611b37614edc565b6020020186611b47856002614e88565b611b52906001614ec9565b60198110611b6257611b62614edc565b602002019190915252600101611ae7565b50611b8a82604051602001611ab791815260200190565b91506000611b9783612d37565b85611ba460016019614ef2565b60198110611bb457611bb4614edc565b60200201919091525050509250929050565b611bce614c17565b6000805b601c811015611c2257611bf184604051602001611ab791815260200190565b93506000611bfe85612d37565b8584601c8110611c1057611c10614edc565b60200201919091525050600101611bd2565b5090929050565b611c31614c17565b6000805b601c811015611cf757611c46614bf8565b84815260005b6008811015611cb05786610100015183601c8110611c6c57611c6c614edc565b60200201518160088110611c8257611c82614edc565b602002015182611c93836001614ec9565b60098110611ca357611ca3614edc565b6020020152600101611c4c565b50611cc581604051602001611ab79190614f3c565b94506000611cd286612d37565b8685601c8110611ce457611ce4614edc565b6020020191909152505050600101611c35565b50909391925050565b600080611d0b614c36565b83815260005b6028811015611d5f578561012001518160288110611d3157611d31614edc565b602002015182611d42836001614ec9565b60298110611d5257611d52614edc565b6020020152600101611d11565b50611d7481604051602001611ab79190614f9b565b91506000611d8183612d37565b5096929550919350505050565b600080611d99614c55565b83815260005b611dab6001601c614ef2565b811015611ee95785610140015181601b8110611dc957611dc9614edc565b60200201515182611ddb836004614e88565b611de6906001614ec9565b606d8110611df657611df6614edc565b602002015261014086015181601b8110611e1257611e12614edc565b60200201516020015182826004611e299190614e88565b611e34906002614ec9565b606d8110611e4457611e44614edc565b602002015261014086015181601b8110611e6057611e60614edc565b60200201516040015182611e75836004614e88565b611e80906003614ec9565b606d8110611e9057611e90614edc565b602002015261014086015181601b8110611eac57611eac614edc565b60200201516060015182611ec1836004614e88565b611ecc906004614ec9565b606d8110611edc57611edc614edc565b6020020152600101611d9f565b50611d7481604051602001611ab79190614fd0565b600080611f09614c74565b83815260005b601c811015611f5d5785610160015181601c8110611f2f57611f2f614edc565b602002015182611f40836001614ec9565b601d8110611f5057611f50614edc565b6020020152600101611f0f565b50611d7481604051602001611ab79190615005565b600080611f7d614c93565b83815261018085018051516020808401919091528151810151604080850191909152825181015160608086019190915292519092015160808401529051611d7491611ab79184910161503a565b6000611fe46000805160206151a28339815191528361506e565b92915050565b60006000805160206151a28339815191528284099392505050565b60006000805160206151a28339815191528284089392505050565b60006000805160206151a2833981519152612049836000805160206151a2833981519152614ef2565b84089392505050565b60006119cb8361055684612333565b81516000908190612074908560016107da565b929092149392505050565b60408051610100810182527f30644e72e131a029b85045b68181585d2833e84879b9709143e1f593efffec5181526102d060208201527f30644e72e131a029b85045b68181585d2833e84879b9709143e1f593efffff1191810191909152609060608201527f30644e72e131a029b85045b68181585d2833e84879b9709143e1f593efffff71608082015260f060a08201527f30644e72e131a029b85045b68181585d2833e84879b9709143e1f593effffd3160c08201526113b060e08201526000906001825b60088110156121675761215d826105568784612020565b9150600101612146565b50612170614cb1565b60005b60088110156121d357600084826008811061219057612190614edc565b602002015190506121a5816105568985612020565b90506121b081612333565b9050808383600881106121c5576121c5614edc565b602002015250600101612173565b5060005b60088110156122285760008782600881106121f4576121f4614edc565b6020020151905061221181848460088110610df857610df8614edc565b905061221d8682612005565b9550506001016121d7565b506107288483611fea565b60008061224a600161055b85610556896001612020565b90506122568482611fea565b95945050505050565b6000612269614cd0565b612274868285612d68565b61228086868386612f19565b61228c86868386613106565b61229786828561330d565b6122a28682856134ff565b6122ae86868386613864565b6122b986828561411f565b6122c48682856144fb565b61072881856147fd565b6122d6614c17565b81815260015b601c81101561232d5761230e826122f4600184614ef2565b601c811061230457612304614edc565b602002015161251b565b8282601c811061232057612320614edc565b60200201526001016122dc565b50919050565b6000808290506000604051602081526020808201526020604082015282606082015260026000805160206151a28339815191520360808201526000805160206151a283398151915260a08201526020600060c08360055afa90508061239757600080fd5b50506000519392505050565b6123ab614cef565b604051806040016040528060888460200151901b846000015117815260200160888460600151901b8460400151178152509050919050565b6000611fe4826000805160206151a2833981519152614ef2565b612405614c17565b601c5b80156125115760008461241c600184614ef2565b601c811061242c5761242c614edc565b60200201519050600088612441600185614ef2565b601c811061245157612451614edc565b6020020151905060006124ad61247161246a858c611fea565b6002611fea565b61057a8a612480600189614ef2565b601c811061249057612490614edc565b60200201516105566124a78861055660018a612020565b87612020565b90506124ce816105566107bf6124c887610556600189612020565b86612005565b90508584116124fd5797508780856124e7600187614ef2565b601c81106124f7576124f7614edc565b60200201525b5050508061250a90615082565b9050612408565b5095945050505050565b6000611fe48283611fea565b61252f614cef565b600061253d601c6028614ec9565b612548906002614ec9565b90506001604051855151604082015285516020015160608201528451608082015260408160606040840160075afa8216915060015b838110156125d65760208102870160208202870181515160408501528151602001516060850152805160808501525050604080830160606040850160075afa8316925060408260808460065afa9092169160010161257d565b50805184526020810151602085015250505092915050565b6125f6614cef565b60008051602061518283398151915282602001516000805160206151828339815191526126239190614ef2565b61262d919061506e565b60208301525090565b81516020808401518351848301516040805194850195909552938301919091527f198e9393920d483a7260bfb731fb5d25f1aa493335a9e71297e485b7aef312c260608301527f1800deef121f1e76426a00665e5c4479674322d4f75edadd46debd5cd992f6ed60808301527f090689d0585ff075ec9e99ad690c3395bc4b313370b38ef355acdadcd122975b60a08301527f12c85ea5db8c6deb4aab71808dcb408fe3d1e7690c43d37b4ce6cc0166fa7daa60c083015260e08201526101008101919091527f260e01b251f6f1c7e7ff4e580791dee8ea51d87a358e038b4efe30fac09383c16101208201527f0118c4d5b837bcc2bc89b5b398b5974e9f5944073b32078b7e231fec938883b06101408201527f04fc6369f7110fe3d25156c1bb9a72859cf2a04641f99ba4ee413c80da6a5fe46101608201527f22febda3c0c0632a56475b4214e5615e11e6dd3f96e6cea2854a87d4dacc5e5561018082015260009081906101a001604051602081830303815290604052905060008060086001600160a01b0316836040516127ce9190615099565b600060405180830381855afa9150503d8060008114612809576040519150601f19603f3d011682016040523d82523d6000602084013e61280e565b606091505b509150915060008180602001905181019061282991906150c8565b90508280156128355750805b979650505050505050565b600080808080612851876003614ec9565b61285c90600c614ec9565b6001600160401b03811115612873576128736150ea565b60405190808252806020026020018201604052801561289c578160200160208202803683370190505b5090508760001b816000815181106128b6576128b6614edc565b6020026020010181815250508660001b816001815181106128d9576128d9614edc565b6020026020010181815250508560001b816002815181106128fc576128fc614edc565b60200260200101818152505060005b8781101561295d578a8a8281811061292557612925614edc565b905060200201358282600361293a9190614ec9565b8151811061294a5761294a614edc565b602090810291909101015260010161290b565b508a51518161296d896003614ec9565b8151811061297d5761297d614edc565b6020908102919091018101919091528b5101518161299c896003614ec9565b6129a7906001614ec9565b815181106129b7576129b7614edc565b60209081029190910101528a5160400151816129d4896003614ec9565b6129df906002614ec9565b815181106129ef576129ef614edc565b60209081029190910101528a516060015181612a0c896003614ec9565b612a17906003614ec9565b81518110612a2757612a27614edc565b6020908102919091018101919091528b01515181612a46896003614ec9565b612a51906004614ec9565b81518110612a6157612a61614edc565b6020908102919091018101919091528b810151015181612a82896003614ec9565b612a8d906005614ec9565b81518110612a9d57612a9d614edc565b6020908102919091018101919091528b01516040015181612abf896003614ec9565b612aca906006614ec9565b81518110612ada57612ada614edc565b6020908102919091018101919091528b01516060015181612afc896003614ec9565b612b07906007614ec9565b81518110612b1757612b17614edc565b602090810291909101015260408b01515181612b34896003614ec9565b612b3f906008614ec9565b81518110612b4f57612b4f614edc565b60209081029190910181019190915260408c0151015181612b71896003614ec9565b612b7c906009614ec9565b81518110612b8c57612b8c614edc565b60209081029190910101526040808c0151015181612bab896003614ec9565b612bb690600a614ec9565b81518110612bc657612bc6614edc565b602090810291909101015260408b01516060015181612be6896003614ec9565b612bf190600b614ec9565b81518110612c0157612c01614edc565b602002602001018181525050612c2181604051602001611ab79190615100565b9150612c2c82612d37565b6040805160208101869052929750909550612c479101611ab7565b91506000612c5483612d37565b50959c949b509499509097509195505050505050565b6000806000612c77614d09565b85815260a0858101805151602080850191909152815181015160408086019190915282518101516060808701919091529251830151608086015260c0808a0180515195870195909552845183015190860152835181015160e086015292518201516101008501528188018051516101208601528051820151610140860152805184015161016086015251909101516101808401529051612d1d91611ab791849101615136565b9150612d2882612d37565b90979096509194509092505050565b600080826001600160801b038116608082901c612d5382611fca565b9450612d5e81611fca565b9350505050915091565b6000612d75846007614863565b90507f183227397098d014dc2822db40c0ac2e9419f4243cdcb848a1f0fac9f80000006000612dd8612dd2612dab856003612020565b610556612dc7612dbc8b6000614863565b6105568c601c614863565b6105568b601b614863565b83611fea565b9050612e59612e4e612e35612e1c612e038561055b612df88d6002614863565b6105568e601b614863565b61055b612e118c6003614863565b6105568d601c614863565b61055b612e2a8b6004614863565b6105568c601d614863565b61055b612e438a6005614863565b6105568b601e614863565b61055b886001614863565b9050612e788161055b612e6d866001612020565b6105568a6026614863565b9050612e848184611fea565b9050612e908185611fea565b85525060009050612ecc612ec1612eb6612eab88601b614863565b61055b89601e614863565b61057a886023614863565b61055b876000614863565b9050612edd81610556846002612020565b9050612eee81610556846001612020565b9050612efa8183611fea565b9050612f068184611fea565b9050808460015b60200201525050505050565b6000806000612f51612f47612f2f89601b614863565b61055b612f3d8b6011614863565b8a60600151611fea565b8760800151612005565b9050612f8a81610556612f80612f688b601c614863565b61055b612f768d6012614863565b8c60600151611fea565b8960800151612005565b9050612faf81610556612f80612fa18b601d614863565b61055b612f768d6013614863565b9050612fd481610556612f80612fc68b601e614863565b61055b612f768d6014614863565b925060009050612ff9612f47612feb89601b614863565b61055b612f3d8b600d614863565b905061301e81610556612f806130108b601c614863565b61055b612f768d600e614863565b905061304381610556612f806130358b601d614863565b61055b612f768d600f614863565b905061306881610556612f8061305a8b601e614863565b61055b612f768d6010614863565b91506000905061309061308a61307f89601f614863565b61055b8a6019614863565b84611fea565b90506130c58161057a6130bf6130a78b6027614863565b61055b6130b58d601a614863565b8c60a00151611fea565b85611fea565b90506130d18185611fea565b60408601525060006130f56130bf6130ea89601a614863565b6105568a6027614863565b606090950194909452505050505050565b60008061316561314d613135613120612f808a6015614863565b61055b61312e8b6016614863565b8a51611fea565b61055b6131438a6017614863565b8960200151611fea565b61055b61315b896018614863565b8860400151611fea565b9150600061319d61318461317a89601b614863565b8860800151612005565b61055b6131928a6003614863565b6105568b6023614863565b905060006131c86131af89601c614863565b61055b6131bd8b6000614863565b6105568c6024614863565b905060006131f36131da8a601d614863565b61055b6131e88c6001614863565b6105568d6025614863565b905061323361321b61320d8561055b868d60000151611fea565b61055b848c60200151611fea565b61055b6132298c6004614863565b8b60400151611fea565b9350505050600061324861308a886020614863565b9050600061325a61308a896020614863565b9050600061329361327a61326f8b6022614863565b61055b8c6006614863565b61057a6132888c6022614863565b6105568d6006614863565b905060006132b86132b26132a78789611fea565b6105568d6020614863565b83612020565b90506132c48188611fea565b905060006132ed6132df6132d98d6006614863565b87611fea565b61057a6132d98e6021614863565b60808a018390529050808960055b60200201525050505050505050505050565b600061331b60006001612020565b9050600061332b60006002612020565b9050600061333b60006003612020565b9050600061335861334d88601c614863565b61057a89601b614863565b9050600061337561336a89601d614863565b61057a8a601c614863565b905060006133926133878a601e614863565b61057a8b601d614863565b905060006133af6133a48b6023614863565b61057a8c601e614863565b9050836133c081610556818b612005565b90506133d081610556878a612005565b90506133e0816105568789612005565b90506133f1816105568d6008614863565b90506133fd818a611fea565b60c08b0152508261341281610556818b612005565b905061342281610556868a612005565b9050613432816105568689612005565b9050613443816105568d6008614863565b905061344f818a611fea565b60e08b0152508161346481610556818b612005565b905061347481610556858a612005565b9050613484816105568589612005565b9050613495816105568d6008614863565b90506134a1818a611fea565b6101008b015250806134b781610556818b612005565b90506134c781610556848a612005565b90506134d7816105568489612005565b90506134e8816105568d6008614863565b90506134f4818a611fea565b9050808a60096132fb565b61353f6040518060e00160405280600081526020016000815260200160008152602001600081526020016000815260200160008152602001600081525090565b61354a84601c614863565b815261355784601d614863565b6020820152613567846023614863565b6040820152613577846026614863565b6060820152613587846025614863565b6080820152613597846024614863565b60a082015260006135a9856002614863565b905060006135b8866000614863565b905060006135ce84604001518560000151612020565b905060006135e485602001518660200151611fea565b606086015190915086906000906135fb9080611fea565b9050600061361a61361489602001518a60600151611fea565b88611fea565b9050600061363a6136338a60a001518b60400151612005565b8a51612005565b90506136496132d98288611fea565b905061367061366a61366461365e8487612020565b88612020565b84612005565b83612005565b905061369861368d6136828387611fea565b6105568f6009614863565b61055660018a612020565b6101408c015250505050602085015160808601516000916136b891612005565b905060006136d76136cd886060015188611fea565b8860200151612020565b905060006136fd6136e88487611fea565b61055b6130bf8b60a001518c60000151612020565b905061372561371a61370f838c611fea565b6105568e6009614863565b610556600189612020565b6101608b015250600091506137479050613740836011612005565b8751611fea565b905060006137558384612005565b90506137618182612005565b90506000613770836009611fea565b905061379a61379461308a61378d8b60a001518c60000151612005565b8b51612005565b82612020565b60c089018190526000906137b69061361490613682908d611fea565b90506137c98b600a602002015182612005565b6101408c015250508651600092506137f19150613740906137ea9080612005565b8851612005565b9050600061383361380e836105568a600001518b60a00151612020565b602089015161057a906138219080612005565b6105568b602001518c60800151612005565b905061385089600b602002015161055b613614613682858d611fea565b89600b602002015250505050505050505050565b61390e604051806102c00160405280600081526020016000815260200160008152602001600081526020016000815260200160008152602001600081526020016000815260200160008152602001600081526020016000815260200160008152602001600081526020016000815260200160008152602001600081526020016000815260200160008152602001600081526020016000815260200160008152602001600081525090565b61394361392a61391f87601b614863565b610556886024614863565b61055b613938886023614863565b61055689601c614863565b815261398861397d61396461395988601b614863565b61055689601e614863565b61055b61397289601c614863565b6105568a601d614863565b61057a876025614863565b6040820181905261399d90600160441b611fea565b604082018190526139b39061057a876026614863565b6040820181905281516139c69190612005565b604082018190526139dc90610556876005614863565b604082015280516139f190600160441b611fea565b808252613a119061055b613a06886023614863565b610556896024614863565b80825260208201819052613a2d9061057a612eab88601d614863565b60208201819052613a4390610556876004614863565b6020820152805160608201819052613a609061055b87601e614863565b60608201819052613a849061057a613a79886025614863565b61055b896026614863565b60608201819052613a9a90610556876000614863565b8160600181815250506000613ac4613aba83602001518460400151612005565b8360600151612005565b9050613ad581610556886003614863565b9050613aed613ae5876024614863565b614000611fea565b60808301819052613b039061055b886023614863565b60808301819052613b1690614000611fea565b60808301819052613b2c9061055b88601d614863565b60808301819052613b3f90614000611fea565b60808301819052613b559061055b88601c614863565b60808301819052613b6890614000611fea565b60808301819052613b7e9061055b88601b614863565b60808301819052613b949061057a88601e614863565b60808301819052613baa90610556886005614863565b6080830152613bbd613ae5876025614863565b60a08301819052613bd39061055b886024614863565b60a08301819052613be690614000611fea565b60a08301819052613bfc9061055b886023614863565b60a08301819052613c0f90614000611fea565b60a08301819052613c259061055b88601e614863565b60a08301819052613c3890614000611fea565b60a08301819052613c4e9061055b88601d614863565b60a08301819052613c649061057a886026614863565b60a08301819052613c7a90610556886000614863565b60a083018190526080830151600091613c939190612005565b9050613ca481610556896004614863565b9050613cbe613cb488601d614863565b8760400151611fea565b60c08401819052613cd79061055b6131438a601c614863565b60c08401819052613cf79061055b613cf08a601b614863565b8951611fea565b60c08401819052613d0d9061055b896001614863565b60c0840181905260e08401819052613d2a9061057a89601e614863565b60c0840152613d3d61334d886023614863565b610140840152613d5c613d51886026614863565b61057a89601e614863565b610120840152610140830151613d8190613d769080611fea565b846101400151612020565b610280840152610140830151613dc490613db990613db29061055660016000805160206151a2833981519152614ef2565b6001612005565b846101200151611fea565b6101608401819052613dfb90613ded90610556613de28b6002614863565b6105568c6003614863565b6105566132d98a600a614863565b6101a0860152610280830151613e1d90613ded90610556613de28b6002614863565b6101c086015260c0830151613e4590610556613e3a8a6002614863565b6105568b6003614863565b6101e08401526000613e65613e5b89601e614863565b8560e00151612020565b9050613e746137948283611fea565b6101a0850152613e8861315b896025614863565b6101008501819052613eac9061055b613ea28b6024614863565b8a60200151611fea565b6101008501819052613ec69061055b61312e8b6023614863565b610100850152613ee5613eda896026614863565b856101000151612020565b6101008501526000613efb6133878a6025614863565b9050613f51613f2a612dd2613db288610140015160016000805160206151a28339815191526105569190614ef2565b610556613db288610100015160016000805160206151a28339815191526105569190614ef2565b610180860152610100850151613f7690613f6b9080611fea565b866101000151612020565b6101c0860152610180850151613fa990613f95906105568c6007614863565b610556613fa38c600a614863565b89611fea565b6101e0880152610280850151613fc890613f95906105568c6007614863565b6102008801526101c0850151613fe790613f95906105568c6007614863565b6102208801526101a0850151614002906105568b6007614863565b6102008601526140216140168a6024614863565b61057a8b601c614863565b610220860152610140850151614061906133879061405690613db29061055660016000805160206151a2833981519152614ef2565b876102200151611fea565b61024086018190526101e086015161026087018190526140989161055b9061055661408d8e6005614863565b6105568f6002614863565b610260860181905260c08601516140bc919061055b9061055661408d8e6000614863565b61026086018190526102008601516140d49190612005565b61026086018190526140ea906136649086612005565b6102a0860181905261410490610556613fa38c600a614863565b6102a0860181905287600c6020020152505050505050505050565b6141a660405180610220016040528060008152602001600081526020016000815260200160008152602001600081526020016000815260200160008152602001600081526020016000815260200160008152602001600081526020016000815260200160008152602001600081526020016000815260200160008152602001600081525090565b6141bf6141b485601b614863565b61055b866002614863565b81526141da6141cf85601c614863565b61055b866003614863565b60208201526141f86141ed85601d614863565b61055b866004614863565b604082015261421661420b85601e614863565b61055b866005614863565b60608201528051614248906142419061423a906142339080611fea565b8451611fea565b8351611fea565b8251611fea565b608082015260208101516142869061427c90614272906142689080611fea565b8460200151611fea565b8360200151611fea565b8260200151611fea565b60a082015260408101516142c4906142ba906142b0906142a69080611fea565b8460400151611fea565b8360400151611fea565b8260400151611fea565b60c08201526060810151614302906142f8906142ee906142e49080611fea565b8460600151611fea565b8360600151611fea565b8260600151611fea565b60e0820152608081015160a082015161431b9190612005565b61010082015260c081015160e08201516143359190612005565b61012082015260a08101516143599061434e9080612005565b826101200151612005565b61014082015260e081015161437d906143729080612005565b826101000151612005565b6101608201526101208101516143939080612005565b6101e082018190526143b4906143a99080612005565b826101600151612005565b6101e08201526101008101516143ca9080612005565b6101a082018190526143eb906143e09080612005565b826101400151612005565b6101a0820181905261016082015161440291612005565b6101808201526101408101516101e082015161441e9190612005565b6101c0820152614432612dd285600b614863565b610200820181905261024084015161018083015161445d9261055b916105569061057a8a6023614863565b836012602002015261448d836013602002015161055b836102000151610556856101a0015161057a8a6024614863565b83601360200201526144bd836014602002015161055b836102000151610556856101c0015161057a8a6025614863565b83601460200201526144ed836015602002015161055b836102000151610556856101e0015161057a8a6026614863565b836015602002015250505050565b61455860405180610160016040528060008152602001600081526020016000815260200160008152602001600081526020016000815260200160008152602001600081526020016000815260200160008152602001600081525090565b6000604051806080016040528061458e7f10dc6e9c006ea38b04b1e03b4bd9490c0d03f98929ca1d7fb56821fd19d3b6e7611fca565b81526020016145bc7f0c28145b6a44df3e0149b3d0a30b3bb599df9756d4dd9b84a86b38cfb45a740b611fca565b81526020016145e97e544b8338791518b2c7645a50392798b21f75bb60e3596170067d00141cac15611fca565b81526020016146177f222c01175718386f2e2e82eb122789e352e105a3b8fa852613bc534433ee428b611fca565b9052905061463461462986601b614863565b61055b876002614863565b61012083018190526146689061465d90613db9906146529080611fea565b856101200151611fea565b836101200151611fea565b825261467585601c614863565b602083015261468585601d614863565b604083015261469585601e614863565b6060830152815160208301516146bd91613aba916146b39190612005565b8460400151612005565b60808301526146d061308a86600c614863565b61014083015281516146f2906146e890836000610df8565b8360800151612005565b60a083015261471e846016602002015161055b8461014001516105568660a0015161057a8b6023614863565b6102c08501526020820151614739906146e890836001610df8565b60c0830152614765846017602002015161055b8461014001516105568660c0015161057a8b6024614863565b6102e08501526040820151614780906146e890836002610df8565b60e08301526147ac846018602002015161055b8461014001516105568660e0015161057a8b6025614863565b61030085015260608201516147c7906146e890836003610df8565b6101008301526147f5846019602002015161055b84610140015161055686610100015161057a8b6026614863565b846019612f0d565b600061480a8184816107da565b905060015b601a81101561485c576148528261055b8684601a811061483157614831614edc565b602002015186614842600187614ef2565b60198110610df857610df8614edc565b915060010161480f565b5092915050565b6000828260278111156148785761487861516b565b6028811061488857614888614edc565b60200201519392505050565b604051806103c001604052806000815260200160008152602001600081526020016148bd614cef565b81526020016148ca614cef565b81526020016148d7614cef565b81526020016148e4614cef565b81526020016148f1614cef565b81526020016148fe614cef565b815260200161490b614cef565b8152602001614918614cef565b8152602001614925614cef565b8152602001614932614cef565b815260200161493f614cef565b815260200161494c614cef565b8152602001614959614cef565b8152602001614966614cef565b8152602001614973614cef565b8152602001614980614cef565b815260200161498d614cef565b815260200161499a614cef565b81526020016149a7614cef565b81526020016149b4614cef565b81526020016149c1614cef565b81526020016149ce614cef565b81526020016149db614cef565b81526020016149e8614cef565b81526020016149f5614cef565b8152602001614a02614cef565b8152602001614a0f614cef565b905290565b604051806101c00160405280614a28614b7b565b8152602001614a35614b7b565b8152602001614a42614b7b565b8152602001614a4f614b7b565b8152602001614a5c614b7b565b8152602001614a69614b7b565b8152602001614a76614b7b565b8152602001614a83614b7b565b8152602001614a90614d28565b8152602001614a9d614d56565b8152602001614aaa614d75565b8152602001614ab7614c17565b8152602001614ac4614b7b565b8152602001614a0f614b7b565b604051806101000160405280614ae5614ba3565b8152602001614af2614bd9565b8152602001614aff614c17565b8152602001614b0c614c17565b8152602001600081526020016000815260200160008152602001600081525090565b604051806108c001604052806046906020820280368337509192915050565b604051806108c001604052806046905b614b65614cef565b815260200190600190039081614b5d5790505090565b6040518060800160405280600081526020016000815260200160008152602001600081525090565b6040518060c001604052806000815260200160008152602001600081526020016000815260200160008152602001600081525090565b6040518061032001604052806019906020820280368337509192915050565b6040518061012001604052806009906020820280368337509192915050565b604051806103800160405280601c906020820280368337509192915050565b6040518061052001604052806029906020820280368337509192915050565b60405180610da00160405280606d906020820280368337509192915050565b604051806103a00160405280601d906020820280368337509192915050565b6040518060a001604052806005906020820280368337509192915050565b6040518061010001604052806008906020820280368337509192915050565b604051806103400160405280601a906020820280368337509192915050565b604051806040016040528060008152602001600081525090565b604051806101a00160405280600d906020820280368337509192915050565b604051806103800160405280601c905b614d40614cb1565b815260200190600190039081614d385790505090565b6040518061050001604052806028906020820280368337509192915050565b604051806103600160405280601b905b614d8d614b7b565b815260200190600190039081614d855790505090565b60008060008060408587031215614db957600080fd5b84356001600160401b03811115614dcf57600080fd5b8501601f81018713614de057600080fd5b80356001600160401b03811115614df657600080fd5b876020828401011115614e0857600080fd5b6020918201955093508501356001600160401b03811115614e2857600080fd5b8501601f81018713614e3957600080fd5b80356001600160401b03811115614e4f57600080fd5b8760208260051b8401011115614e6457600080fd5b949793965060200194505050565b634e487b7160e01b600052601160045260246000fd5b8082028115828204841417611fe457611fe4614e72565b60008085851115614eaf57600080fd5b83861115614ebc57600080fd5b5050820193919092039150565b80820180821115611fe457611fe4614e72565b634e487b7160e01b600052603260045260246000fd5b81810381811115611fe457611fe4614e72565b600060018201614f1757614f17614e72565b5060010190565b80356020831015611fe457600019602084900360031b1b1692915050565b60008183825b6009811015614f61578151835260209283019290910190600101614f42565b5050506101208201905092915050565b634e487b7160e01b600052601260045260246000fd5b600082614f9657614f96614f71565b500490565b60008183825b6029811015614fc0578151835260209283019290910190600101614fa1565b5050506105208201905092915050565b60008183825b606d811015614ff5578151835260209283019290910190600101614fd6565b505050610da08201905092915050565b60008183825b601d81101561502a57815183526020928301929091019060010161500b565b5050506103a08201905092915050565b60008183825b600581101561505f578151835260209283019290910190600101615040565b50505060a08201905092915050565b60008261507d5761507d614f71565b500690565b60008161509157615091614e72565b506000190190565b6000825160005b818110156150ba57602081860181015185830152016150a0565b506000920191825250919050565b6000602082840312156150da57600080fd5b815180151581146119cb57600080fd5b634e487b7160e01b600052604160045260246000fd5b8151600090829060208501835b8281101561512b57815184526020938401939091019060010161510d565b509195945050505050565b60008183825b600d81101561515b57815183526020928301929091019060010161513c565b5050506101a08201905092915050565b634e487b7160e01b600052602160045260246000fdfe30644e72e131a029b85045b68181585d97816a916871ca8d3c208c16d87cfd4730644e72e131a029b85045b68181585d2833e84879b9709143e1f593f0000001a2646970667358221220ffe2f0e5d8b87a9e17a40fbddb579b9fc065f1422d5acbafe08b6a6a80b4650364736f6c634300081b0033",
  "linkReferences": {},
  "deployedLinkReferences": {}
}