{
  "_format": "hh-sol-artifact-1",
  "contractName": "Whirlwind",
  "sourceName": "contracts/whirlwind.sol",
  "abi": [
    {
      "inputs": [
        {
          "internalType": "address",
          "name": "_depositVerifier",
          "type": "address"
        },
        {
          "internalType": "address",
          "name": "_withdrawVerifier",
          "type": "address"
        },
        {
          "internalType": "uint256",
          "name": "_merkleTreeDepth",
          "type": "uint256"
        },
        {
          "internalType": "bytes32",
          "name": "_initialRoot",
          "type": "bytes32"
        }
      ],
      "stateMutability": "nonpayable",
      "type": "constructor"
    },
    {
      "anonymous": false,
      "inputs": [
        {
          "indexed": false,
          "internalType": "bytes32",
          "name": "newRoot",
          "type": "bytes32"
        },
        {
          "indexed": false,
          "internalType": "bytes32",
          "name": "commitment",
          "type": "bytes32"
        },
        {
          "indexed": false,
          "internalType": "uint256",
          "name": "index",
          "type": "uint256"
        }
      ],
      "name": "Deposit",
      "type": "event"
    },
    {
      "anonymous": false,
      "inputs": [
        {
          "indexed": true,
          "internalType": "address",
          "name": "recipient",
          "type": "address"
        },
        {
          "indexed": false,
          "internalType": "bytes32",
          "name": "nullifier",
          "type": "bytes32"
        }
      ],
      "name": "Withdraw",
      "type": "event"
    },
    {
      "inputs": [],
      "name": "currentRoot",
      "outputs": [
        {
          "internalType": "bytes32",
          "name": "",
          "type": "bytes32"
        }
      ],
      "stateMutability": "view",
      "type": "function"
    },
    {
      "inputs": [
        {
          "internalType": "bytes",
          "name": "proof",
          "type": "bytes"
        },
        {
          "internalType": "bytes32",
          "name": "newRoot",
          "type": "bytes32"
        },
        {
          "internalType": "bytes32",
          "name": "commitment",
          "type": "bytes32"
        }
      ],
      "name": "deposit",
      "outputs": [],
      "stateMutability": "payable",
      "type": "function"
    },
    {
      "inputs": [],
      "name": "depositIndex",
      "outputs": [
        {
          "internalType": "uint256",
          "name": "",
          "type": "uint256"
        }
      ],
      "stateMutability": "view",
      "type": "function"
    },
    {
      "inputs": [],
      "name": "depositVerifier",
      "outputs": [
        {
          "internalType": "address",
          "name": "",
          "type": "address"
        }
      ],
      "stateMutability": "view",
      "type": "function"
    },
    {
      "inputs": [],
      "name": "maxDeposits",
      "outputs": [
        {
          "internalType": "uint256",
          "name": "",
          "type": "uint256"
        }
      ],
      "stateMutability": "view",
      "type": "function"
    },
    {
      "inputs": [],
      "name": "owner",
      "outputs": [
        {
          "internalType": "address",
          "name": "",
          "type": "address"
        }
      ],
      "stateMutability": "view",
      "type": "function"
    },
    {
      "inputs": [
        {
          "internalType": "bytes32",
          "name": "",
          "type": "bytes32"
        }
      ],
      "name": "usedNullifiers",
      "outputs": [
        {
          "internalType": "bool",
          "name": "",
          "type": "bool"
        }
      ],
      "stateMutability": "view",
      "type": "function"
    },
    {
      "inputs": [
        {
          "internalType": "bytes",
          "name": "proof",
          "type": "bytes"
        },
        {
          "internalType": "bytes32",
          "name": "nullifier",
          "type": "bytes32"
        }
      ],
      "name": "withdraw",
      "outputs": [],
      "stateMutability": "nonpayable",
      "type": "function"
    },
    {
      "inputs": [],
      "name": "withdrawVerifier",
      "outputs": [
        {
          "internalType": "address",
          "name": "",
          "type": "address"
        }
      ],
      "stateMutability": "view",
      "type": "function"
    }
  ],
  "bytecode": "0x608060405234801561001057600080fd5b50604051610a40380380610a4083398101604081905261002f9161009f565b60068054336001600160a01b0319918216179091556000805482166001600160a01b0387811691909117909155600180549092169085161790556100748260026101e1565b600355600555506101f4915050565b80516001600160a01b038116811461009a57600080fd5b919050565b600080600080608085870312156100b557600080fd5b6100be85610083565b93506100cc60208601610083565b6040860151606090960151949790965092505050565b634e487b7160e01b600052601160045260246000fd5b6001815b600184111561013357808504811115610117576101176100e2565b600184161561012557908102905b60019390931c9280026100fc565b935093915050565b60008261014a575060016101db565b81610157575060006101db565b816001811461016d576002811461017757610193565b60019150506101db565b60ff841115610188576101886100e2565b50506001821b6101db565b5060208310610133831016604e8410600b84101617156101b6575081810a6101db565b6101c360001984846100f8565b80600019048211156101d7576101d76100e2565b0290505b92915050565b60006101ed838361013b565b9392505050565b61083d806102036000396000f3fe6080604052600436106100765760003560e01c8063206137aa1461007b57806326120c88146100c0578063354d594b146100f857806360f47c6c1461011c5780637b89893914610131578063864eb164146101475780638da5cb5b14610167578063cc04ba6e14610187578063fdab463d146101a7575b600080fd5b34801561008757600080fd5b506100ab61009636600461062a565b60046020526000908152604090205460ff1681565b60405190151581526020015b60405180910390f35b3480156100cc57600080fd5b506000546100e0906001600160a01b031681565b6040516001600160a01b0390911681526020016100b7565b34801561010457600080fd5b5061010e60035481565b6040519081526020016100b7565b61012f61012a36600461068b565b6101bd565b005b34801561013d57600080fd5b5061010e60025481565b34801561015357600080fd5b506001546100e0906001600160a01b031681565b34801561017357600080fd5b506006546100e0906001600160a01b031681565b34801561019357600080fd5b5061012f6101a23660046106db565b61042a565b3480156101b357600080fd5b5061010e60055481565b6003546002541061020d5760405162461bcd60e51b815260206004820152601560248201527411195c1bdcda5d081b1a5b5a5d081c995858da1959605a1b60448201526064015b60405180910390fd5b60408051600480825260a08201909252600091602082016080803683370190505090506005548160008151811061024657610246610726565b602002602001018181525050828160018151811061026657610266610726565b602002602001018181525050818160028151811061028657610286610726565b60200260200101818152505060025460001b816003815181106102ab576102ab610726565b6020026020010181815250503467016345785d8a00001461030d5760405162461bcd60e51b815260206004820152601c60248201527b09aeae6e840c8cae0dee6d2e840caf0c2c6e8d8f240605c62408aa8960231b6044820152606401610204565b600054604051633a94343960e21b81526001600160a01b039091169063ea50d0e4906103419088908890869060040161073c565b602060405180830381865afa15801561035e573d6000803e3d6000fd5b505050506040513d601f19601f8201168201806040525081019061038291906107b7565b6103c65760405162461bcd60e51b815260206004820152601560248201527424b73b30b634b2103232b837b9b4ba10383937b7b360591b6044820152606401610204565b6005839055600254604080518581526020810185905280820192909252517f9cf48b7ad06bf620dc80fa1266b50785f18cf0ca1f0696f4cf07e621238e37149181900360600190a16002805490600061041e836107e0565b91905055505050505050565b60008181526004602052604090205460ff16156104825760405162461bcd60e51b8152602060048201526016602482015275139d5b1b1a599a595c88185b1c9958591e481d5cd95960521b6044820152606401610204565b604080516002808252606082018352600092602083019080368337019050509050600554816000815181106104b9576104b9610726565b60200260200101818152505081816001815181106104d9576104d9610726565b6020908102919091010152600154604051633a94343960e21b81526001600160a01b039091169063ea50d0e4906105189087908790869060040161073c565b602060405180830381865afa158015610535573d6000803e3d6000fd5b505050506040513d601f19601f8201168201806040525081019061055991906107b7565b61059e5760405162461bcd60e51b815260206004820152601660248201527524b73b30b634b2103bb4ba34323930bb90383937b7b360511b6044820152606401610204565b60008281526004602052604090819020805460ff191660011790555133907fb18c630f7b4f080f2ce1a87d68860e67aef56b0978e448ed92312da4eebeb160906105eb9085815260200190565b60405180910390a2604051339060009067016345785d8a00009082818181858883f19350505050158015610623573d6000803e3d6000fd5b5050505050565b60006020828403121561063c57600080fd5b5035919050565b60008083601f84011261065557600080fd5b5081356001600160401b0381111561066c57600080fd5b60208301915083602082850101111561068457600080fd5b9250929050565b600080600080606085870312156106a157600080fd5b84356001600160401b038111156106b757600080fd5b6106c387828801610643565b90989097506020870135966040013595509350505050565b6000806000604084860312156106f057600080fd5b83356001600160401b0381111561070657600080fd5b61071286828701610643565b909790965060209590950135949350505050565b634e487b7160e01b600052603260045260246000fd5b60408152826040820152828460608301376000606084830101526000601f19601f8501168201606081016060848303016020850152808551808352608084019150602087019350600092505b808310156107ab5783518252602082019150602084019350600183019250610788565b50979650505050505050565b6000602082840312156107c957600080fd5b815180151581146107d957600080fd5b9392505050565b60006001820161080057634e487b7160e01b600052601160045260246000fd5b506001019056fea26469706673582212203708bbabbe0d308f01647889f31edc2799b14e6e744a841133f47178a9a1cce064736f6c634300081b0033",
  "linkReferences": {},
  "deployedLinkReferences": {}
}